{
  "_format": "hh-sol-artifact-1",
  "contractName": "EpicMintNFT",
  "sourceName": "contracts/EpicMintNFT.sol",
  "abi": [
    {
      "inputs": [
        {
          "internalType": "string",
          "name": "name_",
          "type": "string"
        },
        {
          "internalType": "string",
          "name": "symbol_",
          "type": "string"
        },
        {
          "internalType": "string",
          "name": "contractURI_",
          "type": "string"
        }
      ],
      "stateMutability": "nonpayable",
      "type": "constructor"
    },
    {
      "inputs": [
        {
          "internalType": "uint256",
          "name": "numerator",
          "type": "uint256"
        },
        {
          "internalType": "uint256",
          "name": "denominator",
          "type": "uint256"
        }
      ],
      "name": "ERC2981InvalidDefaultRoyalty",
      "type": "error"
    },
    {
      "inputs": [
        {
          "internalType": "address",
          "name": "receiver",
          "type": "address"
        }
      ],
      "name": "ERC2981InvalidDefaultRoyaltyReceiver",
      "type": "error"
    },
    {
      "inputs": [
        {
          "internalType": "uint256",
          "name": "tokenId",
          "type": "uint256"
        },
        {
          "internalType": "uint256",
          "name": "numerator",
          "type": "uint256"
        },
        {
          "internalType": "uint256",
          "name": "denominator",
          "type": "uint256"
        }
      ],
      "name": "ERC2981InvalidTokenRoyalty",
      "type": "error"
    },
    {
      "inputs": [
        {
          "internalType": "uint256",
          "name": "tokenId",
          "type": "uint256"
        },
        {
          "internalType": "address",
          "name": "receiver",
          "type": "address"
        }
      ],
      "name": "ERC2981InvalidTokenRoyaltyReceiver",
      "type": "error"
    },
    {
      "inputs": [
        {
          "internalType": "address",
          "name": "sender",
          "type": "address"
        },
        {
          "internalType": "uint256",
          "name": "tokenId",
          "type": "uint256"
        },
        {
          "internalType": "address",
          "name": "owner",
          "type": "address"
        }
      ],
      "name": "ERC721IncorrectOwner",
      "type": "error"
    },
    {
      "inputs": [
        {
          "internalType": "address",
          "name": "operator",
          "type": "address"
        },
        {
          "internalType": "uint256",
          "name": "tokenId",
          "type": "uint256"
        }
      ],
      "name": "ERC721InsufficientApproval",
      "type": "error"
    },
    {
      "inputs": [
        {
          "internalType": "address",
          "name": "approver",
          "type": "address"
        }
      ],
      "name": "ERC721InvalidApprover",
      "type": "error"
    },
    {
      "inputs": [
        {
          "internalType": "address",
          "name": "operator",
          "type": "address"
        }
      ],
      "name": "ERC721InvalidOperator",
      "type": "error"
    },
    {
      "inputs": [
        {
          "internalType": "address",
          "name": "owner",
          "type": "address"
        }
      ],
      "name": "ERC721InvalidOwner",
      "type": "error"
    },
    {
      "inputs": [
        {
          "internalType": "address",
          "name": "receiver",
          "type": "address"
        }
      ],
      "name": "ERC721InvalidReceiver",
      "type": "error"
    },
    {
      "inputs": [
        {
          "internalType": "address",
          "name": "sender",
          "type": "address"
        }
      ],
      "name": "ERC721InvalidSender",
      "type": "error"
    },
    {
      "inputs": [
        {
          "internalType": "uint256",
          "name": "tokenId",
          "type": "uint256"
        }
      ],
      "name": "ERC721NonexistentToken",
      "type": "error"
    },
    {
      "inputs": [],
      "name": "EnforcedPause",
      "type": "error"
    },
    {
      "inputs": [],
      "name": "ExpectedPause",
      "type": "error"
    },
    {
      "inputs": [
        {
          "internalType": "address",
          "name": "owner",
          "type": "address"
        }
      ],
      "name": "OwnableInvalidOwner",
      "type": "error"
    },
    {
      "inputs": [
        {
          "internalType": "address",
          "name": "account",
          "type": "address"
        }
      ],
      "name": "OwnableUnauthorizedAccount",
      "type": "error"
    },
    {
      "inputs": [],
      "name": "ReentrancyGuardReentrantCall",
      "type": "error"
    },
    {
      "anonymous": false,
      "inputs": [
        {
          "indexed": true,
          "internalType": "address",
          "name": "owner",
          "type": "address"
        },
        {
          "indexed": true,
          "internalType": "address",
          "name": "approved",
          "type": "address"
        },
        {
          "indexed": true,
          "internalType": "uint256",
          "name": "tokenId",
          "type": "uint256"
        }
      ],
      "name": "Approval",
      "type": "event"
    },
    {
      "anonymous": false,
      "inputs": [
        {
          "indexed": true,
          "internalType": "address",
          "name": "owner",
          "type": "address"
        },
        {
          "indexed": true,
          "internalType": "address",
          "name": "operator",
          "type": "address"
        },
        {
          "indexed": false,
          "internalType": "bool",
          "name": "approved",
          "type": "bool"
        }
      ],
      "name": "ApprovalForAll",
      "type": "event"
    },
    {
      "anonymous": false,
      "inputs": [
        {
          "indexed": false,
          "internalType": "uint256",
          "name": "_fromTokenId",
          "type": "uint256"
        },
        {
          "indexed": false,
          "internalType": "uint256",
          "name": "_toTokenId",
          "type": "uint256"
        }
      ],
      "name": "BatchMetadataUpdate",
      "type": "event"
    },
    {
      "anonymous": false,
      "inputs": [
        {
          "indexed": true,
          "internalType": "address",
          "name": "creator",
          "type": "address"
        }
      ],
      "name": "CreatorRevoked",
      "type": "event"
    },
    {
      "anonymous": false,
      "inputs": [
        {
          "indexed": true,
          "internalType": "address",
          "name": "creator",
          "type": "address"
        }
      ],
      "name": "CreatorVerified",
      "type": "event"
    },
    {
      "anonymous": false,
      "inputs": [
        {
          "indexed": false,
          "internalType": "uint256",
          "name": "_tokenId",
          "type": "uint256"
        }
      ],
      "name": "MetadataUpdate",
      "type": "event"
    },
    {
      "anonymous": false,
      "inputs": [
        {
          "indexed": true,
          "internalType": "uint256",
          "name": "tokenId",
          "type": "uint256"
        },
        {
          "indexed": true,
          "internalType": "address",
          "name": "creator",
          "type": "address"
        },
        {
          "indexed": true,
          "internalType": "address",
          "name": "owner",
          "type": "address"
        },
        {
          "indexed": false,
          "internalType": "string",
          "name": "tokenURI",
          "type": "string"
        }
      ],
      "name": "NFTMinted",
      "type": "event"
    },
    {
      "anonymous": false,
      "inputs": [
        {
          "indexed": true,
          "internalType": "address",
          "name": "previousOwner",
          "type": "address"
        },
        {
          "indexed": true,
          "internalType": "address",
          "name": "newOwner",
          "type": "address"
        }
      ],
      "name": "OwnershipTransferred",
      "type": "event"
    },
    {
      "anonymous": false,
      "inputs": [
        {
          "indexed": false,
          "internalType": "address",
          "name": "account",
          "type": "address"
        }
      ],
      "name": "Paused",
      "type": "event"
    },
    {
      "anonymous": false,
      "inputs": [
        {
          "indexed": true,
          "internalType": "address",
          "name": "from",
          "type": "address"
        },
        {
          "indexed": true,
          "internalType": "address",
          "name": "to",
          "type": "address"
        },
        {
          "indexed": true,
          "internalType": "uint256",
          "name": "tokenId",
          "type": "uint256"
        }
      ],
      "name": "Transfer",
      "type": "event"
    },
    {
      "anonymous": false,
      "inputs": [
        {
          "indexed": false,
          "internalType": "address",
          "name": "account",
          "type": "address"
        }
      ],
      "name": "Unpaused",
      "type": "event"
    },
    {
      "inputs": [
        {
          "internalType": "address",
          "name": "to",
          "type": "address"
        },
        {
          "internalType": "uint256",
          "name": "tokenId",
          "type": "uint256"
        }
      ],
      "name": "approve",
      "outputs": [],
      "stateMutability": "nonpayable",
      "type": "function"
    },
    {
      "inputs": [
        {
          "internalType": "address",
          "name": "owner",
          "type": "address"
        }
      ],
      "name": "balanceOf",
      "outputs": [
        {
          "internalType": "uint256",
          "name": "",
          "type": "uint256"
        }
      ],
      "stateMutability": "view",
      "type": "function"
    },
    {
      "inputs": [
        {
          "internalType": "uint256",
          "name": "tokenId",
          "type": "uint256"
        }
      ],
      "name": "burn",
      "outputs": [],
      "stateMutability": "nonpayable",
      "type": "function"
    },
    {
      "inputs": [],
      "name": "contractURI",
      "outputs": [
        {
          "internalType": "string",
          "name": "",
          "type": "string"
        }
      ],
      "stateMutability": "view",
      "type": "function"
    },
    {
      "inputs": [
        {
          "internalType": "uint256",
          "name": "tokenId",
          "type": "uint256"
        }
      ],
      "name": "getApproved",
      "outputs": [
        {
          "internalType": "address",
          "name": "",
          "type": "address"
        }
      ],
      "stateMutability": "view",
      "type": "function"
    },
    {
      "inputs": [
        {
          "internalType": "address",
          "name": "owner",
          "type": "address"
        },
        {
          "internalType": "address",
          "name": "operator",
          "type": "address"
        }
      ],
      "name": "isApprovedForAll",
      "outputs": [
        {
          "internalType": "bool",
          "name": "",
          "type": "bool"
        }
      ],
      "stateMutability": "view",
      "type": "function"
    },
    {
      "inputs": [
        {
          "internalType": "address",
          "name": "creator",
          "type": "address"
        }
      ],
      "name": "isVerifiedCreator",
      "outputs": [
        {
          "internalType": "bool",
          "name": "",
          "type": "bool"
        }
      ],
      "stateMutability": "view",
      "type": "function"
    },
    {
      "inputs": [
        {
          "internalType": "address",
          "name": "to",
          "type": "address"
        },
        {
          "internalType": "string",
          "name": "metadataURI",
          "type": "string"
        },
        {
          "internalType": "address",
          "name": "royaltyReceiver",
          "type": "address"
        },
        {
          "internalType": "uint96",
          "name": "royaltyFee",
          "type": "uint96"
        }
      ],
      "name": "mintNFT",
      "outputs": [
        {
          "internalType": "uint256",
          "name": "",
          "type": "uint256"
        }
      ],
      "stateMutability": "nonpayable",
      "type": "function"
    },
    {
      "inputs": [],
      "name": "name",
      "outputs": [
        {
          "internalType": "string",
          "name": "",
          "type": "string"
        }
      ],
      "stateMutability": "view",
      "type": "function"
    },
    {
      "inputs": [],
      "name": "owner",
      "outputs": [
        {
          "internalType": "address",
          "name": "",
          "type": "address"
        }
      ],
      "stateMutability": "view",
      "type": "function"
    },
    {
      "inputs": [
        {
          "internalType": "uint256",
          "name": "tokenId",
          "type": "uint256"
        }
      ],
      "name": "ownerOf",
      "outputs": [
        {
          "internalType": "address",
          "name": "",
          "type": "address"
        }
      ],
      "stateMutability": "view",
      "type": "function"
    },
    {
      "inputs": [],
      "name": "pause",
      "outputs": [],
      "stateMutability": "nonpayable",
      "type": "function"
    },
    {
      "inputs": [],
      "name": "paused",
      "outputs": [
        {
          "internalType": "bool",
          "name": "",
          "type": "bool"
        }
      ],
      "stateMutability": "view",
      "type": "function"
    },
    {
      "inputs": [],
      "name": "renounceOwnership",
      "outputs": [],
      "stateMutability": "nonpayable",
      "type": "function"
    },
    {
      "inputs": [
        {
          "internalType": "uint256",
          "name": "tokenId",
          "type": "uint256"
        }
      ],
      "name": "resetRoyalty",
      "outputs": [],
      "stateMutability": "nonpayable",
      "type": "function"
    },
    {
      "inputs": [
        {
          "internalType": "address",
          "name": "creator",
          "type": "address"
        }
      ],
      "name": "revokeCreator",
      "outputs": [],
      "stateMutability": "nonpayable",
      "type": "function"
    },
    {
      "inputs": [
        {
          "internalType": "uint256",
          "name": "tokenId",
          "type": "uint256"
        },
        {
          "internalType": "uint256",
          "name": "salePrice",
          "type": "uint256"
        }
      ],
      "name": "royaltyInfo",
      "outputs": [
        {
          "internalType": "address",
          "name": "receiver",
          "type": "address"
        },
        {
          "internalType": "uint256",
          "name": "amount",
          "type": "uint256"
        }
      ],
      "stateMutability": "view",
      "type": "function"
    },
    {
      "inputs": [
        {
          "internalType": "address",
          "name": "from",
          "type": "address"
        },
        {
          "internalType": "address",
          "name": "to",
          "type": "address"
        },
        {
          "internalType": "uint256",
          "name": "tokenId",
          "type": "uint256"
        }
      ],
      "name": "safeTransferFrom",
      "outputs": [],
      "stateMutability": "nonpayable",
      "type": "function"
    },
    {
      "inputs": [
        {
          "internalType": "address",
          "name": "from",
          "type": "address"
        },
        {
          "internalType": "address",
          "name": "to",
          "type": "address"
        },
        {
          "internalType": "uint256",
          "name": "tokenId",
          "type": "uint256"
        },
        {
          "internalType": "bytes",
          "name": "data",
          "type": "bytes"
        }
      ],
      "name": "safeTransferFrom",
      "outputs": [],
      "stateMutability": "nonpayable",
      "type": "function"
    },
    {
      "inputs": [
        {
          "internalType": "address",
          "name": "operator",
          "type": "address"
        },
        {
          "internalType": "bool",
          "name": "approved",
          "type": "bool"
        }
      ],
      "name": "setApprovalForAll",
      "outputs": [],
      "stateMutability": "nonpayable",
      "type": "function"
    },
    {
      "inputs": [
        {
          "internalType": "string",
          "name": "newURI",
          "type": "string"
        }
      ],
      "name": "setContractURI",
      "outputs": [],
      "stateMutability": "nonpayable",
      "type": "function"
    },
    {
      "inputs": [
        {
          "internalType": "uint256",
          "name": "tokenId",
          "type": "uint256"
        },
        {
          "internalType": "address",
          "name": "receiver",
          "type": "address"
        },
        {
          "internalType": "uint96",
          "name": "feeNumerator",
          "type": "uint96"
        }
      ],
      "name": "setRoyalty",
      "outputs": [],
      "stateMutability": "nonpayable",
      "type": "function"
    },
    {
      "inputs": [
        {
          "internalType": "bytes4",
          "name": "interfaceId",
          "type": "bytes4"
        }
      ],
      "name": "supportsInterface",
      "outputs": [
        {
          "internalType": "bool",
          "name": "",
          "type": "bool"
        }
      ],
      "stateMutability": "view",
      "type": "function"
    },
    {
      "inputs": [],
      "name": "symbol",
      "outputs": [
        {
          "internalType": "string",
          "name": "",
          "type": "string"
        }
      ],
      "stateMutability": "view",
      "type": "function"
    },
    {
      "inputs": [
        {
          "internalType": "uint256",
          "name": "tokenId",
          "type": "uint256"
        }
      ],
      "name": "tokenURI",
      "outputs": [
        {
          "internalType": "string",
          "name": "",
          "type": "string"
        }
      ],
      "stateMutability": "view",
      "type": "function"
    },
    {
      "inputs": [
        {
          "internalType": "address",
          "name": "from",
          "type": "address"
        },
        {
          "internalType": "address",
          "name": "to",
          "type": "address"
        },
        {
          "internalType": "uint256",
          "name": "tokenId",
          "type": "uint256"
        }
      ],
      "name": "transferFrom",
      "outputs": [],
      "stateMutability": "nonpayable",
      "type": "function"
    },
    {
      "inputs": [
        {
          "internalType": "address",
          "name": "newOwner",
          "type": "address"
        }
      ],
      "name": "transferOwnership",
      "outputs": [],
      "stateMutability": "nonpayable",
      "type": "function"
    },
    {
      "inputs": [],
      "name": "unpause",
      "outputs": [],
      "stateMutability": "nonpayable",
      "type": "function"
    },
    {
      "inputs": [
        {
          "internalType": "address",
          "name": "",
          "type": "address"
        }
      ],
      "name": "verifiedCreators",
      "outputs": [
        {
          "internalType": "bool",
          "name": "",
          "type": "bool"
        }
      ],
      "stateMutability": "view",
      "type": "function"
    },
    {
      "inputs": [
        {
          "internalType": "address",
          "name": "creator",
          "type": "address"
        }
      ],
      "name": "verifyCreator",
      "outputs": [],
      "stateMutability": "nonpayable",
      "type": "function"
    }
  ],
  "bytecode": "0x60806040526001600a5534801562000015575f80fd5b5060405162002177380380620021778339810160408190526200003891620001e2565b3383835f620000488382620002f7565b506001620000578282620002f7565b5050506001600160a01b0381166200008857604051631e4fbdf760e01b81525f600482015260240160405180910390fd5b6200009381620000d0565b5060017f9b779b17422d0df92223018b32b4d1fa46e071723d6817e2486d003becc55f0055600b620000c68282620002f7565b50505050620003c3565b600980546001600160a01b038381166001600160a01b0319831681179093556040519116919082907f8be0079c531659141344cd1fd0a4f28419497f9722a3daafe3b4186f6b6457e0905f90a35050565b634e487b7160e01b5f52604160045260245ffd5b5f82601f83011262000145575f80fd5b81516001600160401b038082111562000162576200016262000121565b604051601f8301601f19908116603f011681019082821181831017156200018d576200018d62000121565b8160405283815260209250866020858801011115620001aa575f80fd5b5f91505b83821015620001cd5785820183015181830184015290820190620001ae565b5f602085830101528094505050505092915050565b5f805f60608486031215620001f5575f80fd5b83516001600160401b03808211156200020c575f80fd5b6200021a8783880162000135565b9450602086015191508082111562000230575f80fd5b6200023e8783880162000135565b9350604086015191508082111562000254575f80fd5b50620002638682870162000135565b9150509250925092565b600181811c908216806200028257607f821691505b602082108103620002a157634e487b7160e01b5f52602260045260245ffd5b50919050565b601f821115620002f257805f5260205f20601f840160051c81016020851015620002ce5750805b601f840160051c820191505b81811015620002ef575f8155600101620002da565b50505b505050565b81516001600160401b0381111562000313576200031362000121565b6200032b816200032484546200026d565b84620002a7565b602080601f83116001811462000361575f8415620003495750858301515b5f19600386901b1c1916600185901b178555620003bb565b5f85815260208120601f198616915b82811015620003915788860151825594840194600190910190840162000370565b5085821015620003af57878501515f19600388901b60f8161c191681555b505060018460011b0185555b505050505050565b611da680620003d15f395ff3fe608060405234801561000f575f80fd5b50600436106101d1575f3560e01c80638456cb59116100fe578063add150bc1161009e578063e8a3d4851161006e578063e8a3d48514610419578063e985e9c514610421578063f2fde38b14610434578063f6e257c714610447575f80fd5b8063add150bc146103be578063b88d4fde146103e0578063c0e69af6146103f3578063c87b56dd14610406575f80fd5b806395d89b41116100d957806395d89b411461037d57806398dd1b6514610385578063a22cb46514610398578063a2931610146103ab575f80fd5b80638456cb59146103515780638da5cb5b14610359578063938e3d7b1461036a575f80fd5b806342842e0e116101745780636352211e116101445780636352211e1461030257806370a0823114610315578063715018a61461033657806380c8d6901461033e575f80fd5b806342842e0e1461029f57806342966c68146102b257806350dcf827146102c55780635c975abb146102f0575f80fd5b8063095ea7b3116101af578063095ea7b31461023d57806323b872dd146102525780632a55205a146102655780633f4ba83a14610297575f80fd5b806301ffc9a7146101d557806306fdde03146101fd578063081812fc14610212575b5f80fd5b6101e86101e3366004611799565b61045a565b60405190151581526020015b60405180910390f35b61020561046a565b6040516101f49190611801565b610225610220366004611813565b6104f9565b6040516001600160a01b0390911681526020016101f4565b61025061024b366004611845565b610520565b005b61025061026036600461186d565b61052f565b6102786102733660046118a6565b6105bd565b604080516001600160a01b0390931683526020830191909152016101f4565b610250610640565b6102506102ad36600461186d565b610652565b6102506102c0366004611813565b610671565b6101e86102d33660046118c6565b6001600160a01b03165f908152600c602052604090205460ff1690565b600954600160a01b900460ff166101e8565b610225610310366004611813565b61067c565b6103286103233660046118c6565b610686565b6040519081526020016101f4565b6102506106cb565b61025061034c3660046118f5565b6106dc565b610250610787565b6009546001600160a01b0316610225565b6102506103783660046119d3565b610797565b6102056107ab565b6102506103933660046118c6565b6107ba565b6102506103a6366004611a05565b61080d565b6103286103b9366004611a3e565b610818565b6101e86103cc3660046118c6565b600c6020525f908152604090205460ff1681565b6102506103ee366004611aa9565b610a31565b6102506104013660046118c6565b610a49565b610205610414366004611813565b610a99565b610205610aa4565b6101e861042f366004611b20565b610ab3565b6102506104423660046118c6565b610ae0565b610250610455366004611813565b610b1d565b5f61046482610b7f565b92915050565b60605f805461047890611b51565b80601f01602080910402602001604051908101604052809291908181526020018280546104a490611b51565b80156104ef5780601f106104c6576101008083540402835291602001916104ef565b820191905f5260205f20905b8154815290600101906020018083116104d257829003601f168201915b5050505050905090565b5f61050382610ba3565b505f828152600460205260409020546001600160a01b0316610464565b61052b828233610bdb565b5050565b6001600160a01b03821661055d57604051633250574960e11b81525f60048201526024015b60405180910390fd5b5f610569838333610be8565b9050836001600160a01b0316816001600160a01b0316146105b7576040516364283d7b60e01b81526001600160a01b0380861660048301526024820184905282166044820152606401610554565b50505050565b5f82815260086020526040812080548291906001600160a01b03811690600160a01b90046001600160601b0316816106105750506007546001600160a01b03811690600160a01b90046001600160601b03165b5f6127106106276001600160601b03841689611b9d565b6106319190611bb4565b92989297509195505050505050565b610648610bfc565b610650610c29565b565b61066c83838360405180602001604052805f815250610a31565b505050565b61052b5f8233610be8565b5f61046482610ba3565b5f6001600160a01b0382166106b0576040516322718ad960e21b81525f6004820152602401610554565b506001600160a01b03165f9081526003602052604090205490565b6106d3610bfc565b6106505f610c7e565b336106e68461067c565b6001600160a01b03161461072e5760405162461bcd60e51b815260206004820152600f60248201526e2737ba103a37b5b2b71037bbb732b960891b6044820152606401610554565b6127106001600160601b038216111561077c5760405162461bcd60e51b815260206004820152601060248201526f0a4def2c2d8e8f240e8dede40d0d2ced60831b6044820152606401610554565b61066c838383610ccf565b61078f610bfc565b610650610d8f565b61079f610bfc565b600b61052b8282611c17565b60606001805461047890611b51565b6107c2610bfc565b6001600160a01b0381165f818152600c6020526040808220805460ff19166001179055517ff29712ea7553106dc04213b4a8b2d4bd706623bddf1d92ab875d278700e772259190a250565b61052b338383610dd2565b335f908152600c602052604081205460ff1661086d5760405162461bcd60e51b815260206004820152601460248201527310dc99585d1bdc881b9bdd081d995c9a599a595960621b6044820152606401610554565b610875610e99565b61087d610ec4565b6001600160a01b0385166108c65760405162461bcd60e51b815260206004820152601060248201526f24b73b30b634b2103932b1b2b4bb32b960811b6044820152606401610554565b5f84511161090a5760405162461bcd60e51b815260206004820152601160248201527013595d1859185d18481c995c5d5a5c9959607a1b6044820152606401610554565b600a80545f918261091a83611cd3565b91905055905061092a8682610ef2565b6109348186610f0b565b6001600160a01b0384161580159061095457505f836001600160601b0316115b156109b2576127106001600160601b03841611156109a75760405162461bcd60e51b815260206004820152601060248201526f0a4def2c2d8e8f240e8dede40d0d2ced60831b6044820152606401610554565b6109b2818585610ccf565b856001600160a01b0316336001600160a01b0316827fc8e51ba44d56c605bd20ad8cb591cfa3f9982310c747620ce20f77fd612bb39b886040516109f69190611801565b60405180910390a49050610a2960017f9b779b17422d0df92223018b32b4d1fa46e071723d6817e2486d003becc55f0055565b949350505050565b610a3c84848461052f565b6105b73385858585610f5a565b610a51610bfc565b6001600160a01b0381165f818152600c6020526040808220805460ff19169055517fc77d51d04162a5d61b26217b8a8c78870a02749a7a198336685c57d6f128fa4b9190a250565b606061046482611082565b6060600b805461047890611b51565b6001600160a01b039182165f90815260056020908152604080832093909416825291909152205460ff1690565b610ae8610bfc565b6001600160a01b038116610b1157604051631e4fbdf760e01b81525f6004820152602401610554565b610b1a81610c7e565b50565b33610b278261067c565b6001600160a01b031614610b6f5760405162461bcd60e51b815260206004820152600f60248201526e2737ba103a37b5b2b71037bbb732b960891b6044820152606401610554565b5f90815260086020526040812055565b5f6001600160e01b0319821663152a902d60e11b14806104645750610464826110fb565b5f818152600260205260408120546001600160a01b03168061046457604051637e27328960e01b815260048101849052602401610554565b61066c838383600161111f565b5f610bf1610e99565b610a29848484611223565b6009546001600160a01b031633146106505760405163118cdaa760e01b8152336004820152602401610554565b610c31611315565b6009805460ff60a01b191690557f5db9ee0a495bf2e6ff9c91a7834c1ba4fdd244a5e8aa4e537bd38aeae4b073aa335b6040516001600160a01b03909116815260200160405180910390a1565b600980546001600160a01b038381166001600160a01b0319831681179093556040519116919082907f8be0079c531659141344cd1fd0a4f28419497f9722a3daafe3b4186f6b6457e0905f90a35050565b6127106001600160601b038216811015610d155760405163dfd1fc1b60e01b8152600481018590526001600160601b038316602482015260448101829052606401610554565b6001600160a01b038316610d4557604051634b4f842960e11b8152600481018590525f6024820152604401610554565b506040805180820182526001600160a01b0393841681526001600160601b0392831660208083019182525f968752600890529190942093519051909116600160a01b029116179055565b610d97610e99565b6009805460ff60a01b1916600160a01b1790557f62e78cea01bee320cd4e420270b5ea74000d11b0c9f74754ebdbfc544b05a258610c613390565b6001600160a01b038316610dfb5760405163a9fbf51f60e01b81525f6004820152602401610554565b6001600160a01b038216610e2d57604051630b61174360e31b81526001600160a01b0383166004820152602401610554565b6001600160a01b038381165f81815260056020908152604080832094871680845294825291829020805460ff191686151590811790915591519182527f17307eab39ab6107e8899845ad3d59bd9653f200f220920489ca2b5937696c31910160405180910390a3505050565b600954600160a01b900460ff16156106505760405163d93c066560e01b815260040160405180910390fd5b610ecc61133f565b60027f9b779b17422d0df92223018b32b4d1fa46e071723d6817e2486d003becc55f0055565b61052b828260405180602001604052805f815250611381565b5f828152600660205260409020610f228282611c17565b506040518281527ff8e1a15aba9398e019f0b49df1a4fde98ee17ae345cb5f6b5e2c27f5033e8ce79060200160405180910390a15050565b6001600160a01b0383163b1561107b57604051630a85bd0160e11b81526001600160a01b0384169063150b7a0290610f9c908890889087908790600401611ceb565b6020604051808303815f875af1925050508015610fd6575060408051601f3d908101601f19168201909252610fd391810190611d27565b60015b61103d573d808015611003576040519150601f19603f3d011682016040523d82523d5f602084013e611008565b606091505b5080515f0361103557604051633250574960e11b81526001600160a01b0385166004820152602401610554565b805160208201fd5b6001600160e01b03198116630a85bd0160e11b1461107957604051633250574960e11b81526001600160a01b0385166004820152602401610554565b505b5050505050565b606061108d82610ba3565b505f6110a360408051602081019091525f815290565b90505f6110af84611398565b905081515f036110c0579392505050565b8051156110f25781816040516020016110da929190611d42565b60405160208183030381529060405292505050919050565b610a2984611437565b5f6001600160e01b03198216632483248360e11b14806104645750610464826114a8565b808061113357506001600160a01b03821615155b156111f4575f61114284610ba3565b90506001600160a01b0383161580159061116e5750826001600160a01b0316816001600160a01b031614155b8015611181575061117f8184610ab3565b155b156111aa5760405163a9fbf51f60e01b81526001600160a01b0384166004820152602401610554565b81156111f25783856001600160a01b0316826001600160a01b03167f8c5be1e5ebec7d5bd14f71427d1e84f3dd0314c0f7b2291e5b200ac8c7c3b92560405160405180910390a45b505b50505f90815260046020526040902080546001600160a01b0319166001600160a01b0392909216919091179055565b5f828152600260205260408120546001600160a01b039081169083161561124f5761124f8184866114f7565b6001600160a01b038116156112895761126a5f855f8061111f565b6001600160a01b0381165f90815260036020526040902080545f190190555b6001600160a01b038516156112b7576001600160a01b0385165f908152600360205260409020805460010190555b5f8481526002602052604080822080546001600160a01b0319166001600160a01b0389811691821790925591518793918516917fddf252ad1be2c89b69c2b068fc378daa952ba7f163c4a11628f55a4df523b3ef91a4949350505050565b600954600160a01b900460ff1661065057604051638dfc202b60e01b815260040160405180910390fd5b7f9b779b17422d0df92223018b32b4d1fa46e071723d6817e2486d003becc55f005460020361065057604051633ee5aeb560e01b815260040160405180910390fd5b61138b838361155b565b61066c335f858585610f5a565b5f8181526006602052604090208054606091906113b490611b51565b80601f01602080910402602001604051908101604052809291908181526020018280546113e090611b51565b801561142b5780601f106114025761010080835404028352916020019161142b565b820191905f5260205f20905b81548152906001019060200180831161140e57829003601f168201915b50505050509050919050565b606061144282610ba3565b505f61145860408051602081019091525f815290565b90505f8151116114765760405180602001604052805f8152506114a1565b80611480846115bc565b604051602001611491929190611d42565b6040516020818303038152906040525b9392505050565b5f6001600160e01b031982166380ac58cd60e01b14806114d857506001600160e01b03198216635b5e139f60e01b145b8061046457506301ffc9a760e01b6001600160e01b0319831614610464565b61150283838361164c565b61066c576001600160a01b03831661153057604051637e27328960e01b815260048101829052602401610554565b60405163177e802f60e01b81526001600160a01b038316600482015260248101829052604401610554565b6001600160a01b03821661158457604051633250574960e11b81525f6004820152602401610554565b5f61159083835f610be8565b90506001600160a01b0381161561066c576040516339e3563760e11b81525f6004820152602401610554565b60605f6115c8836116ad565b60010190505f8167ffffffffffffffff8111156115e7576115e761192e565b6040519080825280601f01601f191660200182016040528015611611576020820181803683370190505b5090508181016020015b5f19016f181899199a1a9b1b9c1cb0b131b232b360811b600a86061a8153600a850494508461161b57509392505050565b5f6001600160a01b03831615801590610a295750826001600160a01b0316846001600160a01b0316148061168557506116858484610ab3565b80610a295750505f908152600460205260409020546001600160a01b03908116911614919050565b5f8072184f03e93ff9f4daa797ed6e38ed64bf6a1f0160401b83106116eb5772184f03e93ff9f4daa797ed6e38ed64bf6a1f0160401b830492506040015b6d04ee2d6d415b85acef81000000008310611717576d04ee2d6d415b85acef8100000000830492506020015b662386f26fc10000831061173557662386f26fc10000830492506010015b6305f5e100831061174d576305f5e100830492506008015b612710831061176157612710830492506004015b60648310611773576064830492506002015b600a83106104645760010192915050565b6001600160e01b031981168114610b1a575f80fd5b5f602082840312156117a9575f80fd5b81356114a181611784565b5f5b838110156117ce5781810151838201526020016117b6565b50505f910152565b5f81518084526117ed8160208601602086016117b4565b601f01601f19169290920160200192915050565b602081525f6114a160208301846117d6565b5f60208284031215611823575f80fd5b5035919050565b80356001600160a01b0381168114611840575f80fd5b919050565b5f8060408385031215611856575f80fd5b61185f8361182a565b946020939093013593505050565b5f805f6060848603121561187f575f80fd5b6118888461182a565b92506118966020850161182a565b9150604084013590509250925092565b5f80604083850312156118b7575f80fd5b50508035926020909101359150565b5f602082840312156118d6575f80fd5b6114a18261182a565b80356001600160601b0381168114611840575f80fd5b5f805f60608486031215611907575f80fd5b833592506119176020850161182a565b9150611925604085016118df565b90509250925092565b634e487b7160e01b5f52604160045260245ffd5b5f67ffffffffffffffff8084111561195c5761195c61192e565b604051601f8501601f19908116603f011681019082821181831017156119845761198461192e565b8160405280935085815286868601111561199c575f80fd5b858560208301375f602087830101525050509392505050565b5f82601f8301126119c4575f80fd5b6114a183833560208501611942565b5f602082840312156119e3575f80fd5b813567ffffffffffffffff8111156119f9575f80fd5b610a29848285016119b5565b5f8060408385031215611a16575f80fd5b611a1f8361182a565b915060208301358015158114611a33575f80fd5b809150509250929050565b5f805f8060808587031215611a51575f80fd5b611a5a8561182a565b9350602085013567ffffffffffffffff811115611a75575f80fd5b611a81878288016119b5565b935050611a906040860161182a565b9150611a9e606086016118df565b905092959194509250565b5f805f8060808587031215611abc575f80fd5b611ac58561182a565b9350611ad36020860161182a565b925060408501359150606085013567ffffffffffffffff811115611af5575f80fd5b8501601f81018713611b05575f80fd5b611b1487823560208401611942565b91505092959194509250565b5f8060408385031215611b31575f80fd5b611b3a8361182a565b9150611b486020840161182a565b90509250929050565b600181811c90821680611b6557607f821691505b602082108103611b8357634e487b7160e01b5f52602260045260245ffd5b50919050565b634e487b7160e01b5f52601160045260245ffd5b808202811582820484141761046457610464611b89565b5f82611bce57634e487b7160e01b5f52601260045260245ffd5b500490565b601f82111561066c57805f5260205f20601f840160051c81016020851015611bf85750805b601f840160051c820191505b8181101561107b575f8155600101611c04565b815167ffffffffffffffff811115611c3157611c3161192e565b611c4581611c3f8454611b51565b84611bd3565b602080601f831160018114611c78575f8415611c615750858301515b5f19600386901b1c1916600185901b178555611079565b5f85815260208120601f198616915b82811015611ca657888601518255948401946001909101908401611c87565b5085821015611cc357878501515f19600388901b60f8161c191681555b5050505050600190811b01905550565b5f60018201611ce457611ce4611b89565b5060010190565b6001600160a01b03858116825284166020820152604081018390526080606082018190525f90611d1d908301846117d6565b9695505050505050565b5f60208284031215611d37575f80fd5b81516114a181611784565b5f8351611d538184602088016117b4565b835190830190611d678183602088016117b4565b0194935050505056fea264697066735822122051b1debdb35863756197f09fe96f254cd31808ed7570e319329982eff37ef6ba64736f6c63430008180033",
  "linkReferences": {},
  "deployedLinkReferences": {}
}