{"contracts/EpicMintNFT.sol":{"EpicMintNFT":{"abi":[{"inputs":[{"internalType":"string","name":"name","type":"string"},{"internalType":"string","name":"symbol","type":"string"}],"stateMutability":"nonpayable","type":"constructor"},{"inputs":[{"internalType":"address","name":"sender","type":"address"},{"internalType":"uint256","name":"tokenId","type":"uint256"},{"internalType":"address","name":"owner","type":"address"}],"name":"ERC721IncorrectOwner","type":"error"},{"inputs":[{"internalType":"address","name":"operator","type":"address"},{"internalType":"uint256","name":"tokenId","type":"uint256"}],"name":"ERC721InsufficientApproval","type":"error"},{"inputs":[{"internalType":"address","name":"approver","type":"address"}],"name":"ERC721InvalidApprover","type":"error"},{"inputs":[{"internalType":"address","name":"operator","type":"address"}],"name":"ERC721InvalidOperator","type":"error"},{"inputs":[{"internalType":"address","name":"owner","type":"address"}],"name":"ERC721InvalidOwner","type":"error"},{"inputs":[{"internalType":"address","name":"receiver","type":"address"}],"name":"ERC721InvalidReceiver","type":"error"},{"inputs":[{"internalType":"address","name":"sender","type":"address"}],"name":"ERC721InvalidSender","type":"error"},{"inputs":[{"internalType":"uint256","name":"tokenId","type":"uint256"}],"name":"ERC721NonexistentToken","type":"error"},{"inputs":[],"name":"EnforcedPause","type":"error"},{"inputs":[],"name":"ExpectedPause","type":"error"},{"inputs":[{"internalType":"address","name":"owner","type":"address"}],"name":"OwnableInvalidOwner","type":"error"},{"inputs":[{"internalType":"address","name":"account","type":"address"}],"name":"OwnableUnauthorizedAccount","type":"error"},{"inputs":[],"name":"ReentrancyGuardReentrantCall","type":"error"},{"anonymous":false,"inputs":[{"indexed":true,"internalType":"address","name":"owner","type":"address"},{"indexed":true,"internalType":"address","name":"approved","type":"address"},{"indexed":true,"internalType":"uint256","name":"tokenId","type":"uint256"}],"name":"Approval","type":"event"},{"anonymous":false,"inputs":[{"indexed":true,"internalType":"address","name":"owner","type":"address"},{"indexed":true,"internalType":"address","name":"operator","type":"address"},{"indexed":false,"internalType":"bool","name":"approved","type":"bool"}],"name":"ApprovalForAll","type":"event"},{"anonymous":false,"inputs":[{"indexed":false,"internalType":"uint256","name":"_fromTokenId","type":"uint256"},{"indexed":false,"internalType":"uint256","name":"_toTokenId","type":"uint256"}],"name":"BatchMetadataUpdate","type":"event"},{"anonymous":false,"inputs":[{"indexed":false,"internalType":"uint256","name":"_tokenId","type":"uint256"}],"name":"MetadataUpdate","type":"event"},{"anonymous":false,"inputs":[{"indexed":true,"internalType":"uint256","name":"tokenId","type":"uint256"},{"indexed":false,"internalType":"uint256","name":"price","type":"uint256"},{"indexed":true,"internalType":"address","name":"seller","type":"address"}],"name":"NFTListed","type":"event"},{"anonymous":false,"inputs":[{"indexed":true,"internalType":"uint256","name":"tokenId","type":"uint256"},{"indexed":true,"internalType":"address","name":"to","type":"address"},{"indexed":false,"internalType":"string","name":"tokenURI","type":"string"}],"name":"NFTMinted","type":"event"},{"anonymous":false,"inputs":[{"indexed":true,"internalType":"uint256","name":"tokenId","type":"uint256"},{"indexed":false,"internalType":"uint256","name":"price","type":"uint256"},{"indexed":true,"internalType":"address","name":"seller","type":"address"},{"indexed":true,"internalType":"address","name":"buyer","type":"address"}],"name":"NFTSold","type":"event"},{"anonymous":false,"inputs":[{"indexed":true,"internalType":"uint256","name":"tokenId","type":"uint256"},{"indexed":true,"internalType":"address","name":"seller","type":"address"}],"name":"NFTUnlisted","type":"event"},{"anonymous":false,"inputs":[{"indexed":true,"internalType":"address","name":"previousOwner","type":"address"},{"indexed":true,"internalType":"address","name":"newOwner","type":"address"}],"name":"OwnershipTransferred","type":"event"},{"anonymous":false,"inputs":[{"indexed":false,"internalType":"address","name":"account","type":"address"}],"name":"Paused","type":"event"},{"anonymous":false,"inputs":[{"indexed":true,"internalType":"uint256","name":"tokenId","type":"uint256"},{"indexed":true,"internalType":"address","name":"recipient","type":"address"},{"indexed":false,"internalType":"uint256","name":"percentage","type":"uint256"}],"name":"RoyaltySet","type":"event"},{"anonymous":false,"inputs":[{"indexed":true,"internalType":"address","name":"from","type":"address"},{"indexed":true,"internalType":"address","name":"to","type":"address"},{"indexed":true,"internalType":"uint256","name":"tokenId","type":"uint256"}],"name":"Transfer","type":"event"},{"anonymous":false,"inputs":[{"indexed":false,"internalType":"address","name":"account","type":"address"}],"name":"Unpaused","type":"event"},{"inputs":[{"internalType":"address","name":"to","type":"address"},{"internalType":"uint256","name":"tokenId","type":"uint256"}],"name":"approve","outputs":[],"stateMutability":"nonpayable","type":"function"},{"inputs":[{"internalType":"address","name":"owner","type":"address"}],"name":"balanceOf","outputs":[{"internalType":"uint256","name":"","type":"uint256"}],"stateMutability":"view","type":"function"},{"inputs":[{"internalType":"address[]","name":"recipients","type":"address[]"},{"internalType":"string[]","name":"tokenURIs","type":"string[]"},{"internalType":"address[]","name":"royaltyRecipients","type":"address[]"},{"internalType":"uint256[]","name":"royaltyPercentages","type":"uint256[]"}],"name":"batchMintNFT","outputs":[{"internalType":"uint256[]","name":"","type":"uint256[]"}],"stateMutability":"nonpayable","type":"function"},{"inputs":[{"internalType":"uint256","name":"tokenId","type":"uint256"}],"name":"burn","outputs":[],"stateMutability":"nonpayable","type":"function"},{"inputs":[{"internalType":"uint256","name":"tokenId","type":"uint256"}],"name":"buyNFT","outputs":[],"stateMutability":"payable","type":"function"},{"inputs":[],"name":"contractURI","outputs":[{"internalType":"string","name":"","type":"string"}],"stateMutability":"view","type":"function"},{"inputs":[{"internalType":"uint256","name":"tokenId","type":"uint256"}],"name":"getApproved","outputs":[{"internalType":"address","name":"","type":"address"}],"stateMutability":"view","type":"function"},{"inputs":[],"name":"getCurrentTokenId","outputs":[{"internalType":"uint256","name":"","type":"uint256"}],"stateMutability":"view","type":"function"},{"inputs":[{"internalType":"uint256","name":"tokenId","type":"uint256"}],"name":"getMarketItem","outputs":[{"components":[{"internalType":"uint256","name":"tokenId","type":"uint256"},{"internalType":"address payable","name":"seller","type":"address"},{"internalType":"address payable","name":"owner","type":"address"},{"internalType":"uint256","name":"price","type":"uint256"},{"internalType":"bool","name":"sold","type":"bool"},{"internalType":"uint256","name":"listedAt","type":"uint256"}],"internalType":"struct EpicMintNFT.MarketItem","name":"","type":"tuple"}],"stateMutability":"view","type":"function"},{"inputs":[{"internalType":"address","name":"owner","type":"address"}],"name":"getTokensByOwner","outputs":[{"internalType":"uint256[]","name":"","type":"uint256[]"}],"stateMutability":"view","type":"function"},{"inputs":[],"name":"getTokensForSale","outputs":[{"internalType":"uint256[]","name":"","type":"uint256[]"}],"stateMutability":"view","type":"function"},{"inputs":[{"internalType":"address","name":"owner","type":"address"},{"internalType":"address","name":"operator","type":"address"}],"name":"isApprovedForAll","outputs":[{"internalType":"bool","name":"","type":"bool"}],"stateMutability":"view","type":"function"},{"inputs":[{"internalType":"uint256","name":"tokenId","type":"uint256"}],"name":"isTokenForSale","outputs":[{"internalType":"bool","name":"","type":"bool"}],"stateMutability":"view","type":"function"},{"inputs":[{"internalType":"uint256","name":"tokenId","type":"uint256"},{"internalType":"uint256","name":"price","type":"uint256"}],"name":"listNFT","outputs":[],"stateMutability":"nonpayable","type":"function"},{"inputs":[{"internalType":"address","name":"to","type":"address"},{"internalType":"string","name":"_tokenURI","type":"string"},{"internalType":"address","name":"royaltyRecipient","type":"address"},{"internalType":"uint256","name":"royaltyPercentage","type":"uint256"}],"name":"mintNFT","outputs":[{"internalType":"uint256","name":"","type":"uint256"}],"stateMutability":"nonpayable","type":"function"},{"inputs":[],"name":"name","outputs":[{"internalType":"string","name":"","type":"string"}],"stateMutability":"view","type":"function"},{"inputs":[],"name":"owner","outputs":[{"internalType":"address","name":"","type":"address"}],"stateMutability":"view","type":"function"},{"inputs":[{"internalType":"uint256","name":"tokenId","type":"uint256"}],"name":"ownerOf","outputs":[{"internalType":"address","name":"","type":"address"}],"stateMutability":"view","type":"function"},{"inputs":[],"name":"pause","outputs":[],"stateMutability":"nonpayable","type":"function"},{"inputs":[],"name":"paused","outputs":[{"internalType":"bool","name":"","type":"bool"}],"stateMutability":"view","type":"function"},{"inputs":[],"name":"renounceOwnership","outputs":[],"stateMutability":"nonpayable","type":"function"},{"inputs":[{"internalType":"uint256","name":"tokenId","type":"uint256"},{"internalType":"uint256","name":"salePrice","type":"uint256"}],"name":"royaltyInfo","outputs":[{"internalType":"address","name":"","type":"address"},{"internalType":"uint256","name":"","type":"uint256"}],"stateMutability":"view","type":"function"},{"inputs":[{"internalType":"address","name":"from","type":"address"},{"internalType":"address","name":"to","type":"address"},{"internalType":"uint256","name":"tokenId","type":"uint256"}],"name":"safeTransferFrom","outputs":[],"stateMutability":"nonpayable","type":"function"},{"inputs":[{"internalType":"address","name":"from","type":"address"},{"internalType":"address","name":"to","type":"address"},{"internalType":"uint256","name":"tokenId","type":"uint256"},{"internalType":"bytes","name":"data","type":"bytes"}],"name":"safeTransferFrom","outputs":[],"stateMutability":"nonpayable","type":"function"},{"inputs":[{"internalType":"address","name":"operator","type":"address"},{"internalType":"bool","name":"approved","type":"bool"}],"name":"setApprovalForAll","outputs":[],"stateMutability":"nonpayable","type":"function"},{"inputs":[{"internalType":"string","name":"contractURI_","type":"string"}],"name":"setContractURI","outputs":[],"stateMutability":"nonpayable","type":"function"},{"inputs":[{"internalType":"bytes4","name":"interfaceId","type":"bytes4"}],"name":"supportsInterface","outputs":[{"internalType":"bool","name":"","type":"bool"}],"stateMutability":"view","type":"function"},{"inputs":[],"name":"symbol","outputs":[{"internalType":"string","name":"","type":"string"}],"stateMutability":"view","type":"function"},{"inputs":[{"internalType":"uint256","name":"tokenId","type":"uint256"}],"name":"tokenURI","outputs":[{"internalType":"string","name":"","type":"string"}],"stateMutability":"view","type":"function"},{"inputs":[{"internalType":"address","name":"from","type":"address"},{"internalType":"address","name":"to","type":"address"},{"internalType":"uint256","name":"tokenId","type":"uint256"}],"name":"transferFrom","outputs":[],"stateMutability":"nonpayable","type":"function"},{"inputs":[{"internalType":"address","name":"newOwner","type":"address"}],"name":"transferOwnership","outputs":[],"stateMutability":"nonpayable","type":"function"},{"inputs":[{"internalType":"uint256","name":"tokenId","type":"uint256"}],"name":"unlistNFT","outputs":[],"stateMutability":"nonpayable","type":"function"},{"inputs":[],"name":"unpause","outputs":[],"stateMutability":"nonpayable","type":"function"},{"inputs":[],"name":"withdraw","outputs":[],"stateMutability":"nonpayable","type":"function"}],"evm":{"bytecode":{"linkReferences":{},"object":"6080604052600160085560fa600d553480156200001a575f80fd5b5060405162003146380380620031468339810160408190526200003d91620001d7565b3382825f6200004d8382620002c7565b5060016200005c8282620002c7565b5050506001600160a01b0381166200008d57604051631e4fbdf760e01b81525f600482015260240160405180910390fd5b6200009881620000c5565b505060017f9b779b17422d0df92223018b32b4d1fa46e071723d6817e2486d003becc55f00555062000393565b600780546001600160a01b038381166001600160a01b0319831681179093556040519116919082907f8be0079c531659141344cd1fd0a4f28419497f9722a3daafe3b4186f6b6457e0905f90a35050565b634e487b7160e01b5f52604160045260245ffd5b5f82601f8301126200013a575f80fd5b81516001600160401b038082111562000157576200015762000116565b604051601f8301601f19908116603f0116810190828211818310171562000182576200018262000116565b81604052838152602092508660208588010111156200019f575f80fd5b5f91505b83821015620001c25785820183015181830184015290820190620001a3565b5f602085830101528094505050505092915050565b5f8060408385031215620001e9575f80fd5b82516001600160401b038082111562000200575f80fd5b6200020e868387016200012a565b9350602085015191508082111562000224575f80fd5b5062000233858286016200012a565b9150509250929050565b600181811c908216806200025257607f821691505b6020821081036200027157634e487b7160e01b5f52602260045260245ffd5b50919050565b601f821115620002c257805f5260205f20601f840160051c810160208510156200029e5750805b601f840160051c820191505b81811015620002bf575f8155600101620002aa565b50505b505050565b81516001600160401b03811115620002e357620002e362000116565b620002fb81620002f484546200023d565b8462000277565b602080601f83116001811462000331575f8415620003195750858301515b5f19600386901b1c1916600185901b1785556200038b565b5f85815260208120601f198616915b82811015620003615788860151825594840194600190910190840162000340565b50858210156200037f57878501515f19600388901b60f8161c191681555b505060018460011b0185555b505050505050565b612da580620003a15f395ff3fe6080604052600436106101f1575f3560e01c806365e4e1c011610108578063961f09441161009d578063c87b56dd1161006d578063c87b56dd14610684578063e3e3da89146106a3578063e8a3d485146106c2578063e985e9c5146106d6578063f2fde38b146106f5575f80fd5b8063961f09441461051a578063a22cb46514610539578063b88d4fde14610558578063c7be7a4914610577575f80fd5b80638da5cb5b116100d85780638da5cb5b146104ab578063938e3d7b146104c857806394383f14146104e757806395d89b4114610506575f80fd5b806365e4e1c01461045057806370a0823114610464578063715018a6146104835780638456cb5914610497575f80fd5b80633f4ba83a116101895780634fed1c94116101595780634fed1c94146103b057806351ed8288146103de57806356189236146103f15780635c975abb146104135780636352211e14610431575f80fd5b80633f4ba83a1461033f57806340398d671461035357806342842e0e1461037257806342966c6814610391575f80fd5b8063095ea7b3116101c4578063095ea7b3146102ad57806323b872dd146102ce5780632a55205a146102ed5780633ccfd60b1461032b575f80fd5b806301ffc9a7146101f5578063034f4b251461022957806306fdde0314610255578063081812fc14610276575b5f80fd5b348015610200575f80fd5b5061021461020f3660046124b0565b610714565b60405190151581526020015b60405180910390f35b348015610234575f80fd5b50610248610243366004612690565b610724565b60405161022091906127a1565b348015610260575f80fd5b506102696108e9565b6040516102209190612831565b348015610281575f80fd5b50610295610290366004612843565b610978565b6040516001600160a01b039091168152602001610220565b3480156102b8575f80fd5b506102cc6102c736600461285a565b61099f565b005b3480156102d9575f80fd5b506102cc6102e8366004612882565b6109ae565b3480156102f8575f80fd5b5061030c6103073660046128bb565b610a37565b604080516001600160a01b039093168352602083019190915201610220565b348015610336575f80fd5b506102cc610aaa565b34801561034a575f80fd5b506102cc610b41565b34801561035e575f80fd5b5061024861036d3660046128db565b610b53565b34801561037d575f80fd5b506102cc61038c366004612882565b610c6f565b34801561039c575f80fd5b506102cc6103ab366004612843565b610c8e565b3480156103bb575f80fd5b506102146103ca366004612843565b5f908152600b602052604090205460ff1690565b6102cc6103ec366004612843565b610c99565b3480156103fc575f80fd5b50610405611006565b604051908152602001610220565b34801561041e575f80fd5b50600754600160a01b900460ff16610214565b34801561043c575f80fd5b5061029561044b366004612843565b61101b565b34801561045b575f80fd5b50610248611025565b34801561046f575f80fd5b5061040561047e3660046128db565b611164565b34801561048e575f80fd5b506102cc6111a9565b3480156104a2575f80fd5b506102cc6111ba565b3480156104b6575f80fd5b506007546001600160a01b0316610295565b3480156104d3575f80fd5b506102cc6104e23660046128f4565b6111ca565b3480156104f2575f80fd5b506102cc6105013660046128bb565b6111de565b348015610511575f80fd5b5061026961143f565b348015610525575f80fd5b506102cc610534366004612843565b61144e565b348015610544575f80fd5b506102cc610553366004612926565b61163c565b348015610563575f80fd5b506102cc61057236600461295f565b611647565b348015610582575f80fd5b5061062d610591366004612843565b6040805160c0810182525f80825260208201819052918101829052606081018290526080810182905260a0810191909152505f908152600a6020908152604091829020825160c0810184528154815260018201546001600160a01b039081169382019390935260028201549092169282019290925260038201546060820152600482015460ff161515608082015260059091015460a082015290565b60408051825181526020808401516001600160a01b03908116918301919091528383015116918101919091526060808301519082015260808083015115159082015260a0918201519181019190915260c001610220565b34801561068f575f80fd5b5061026961069e366004612843565b61165f565b3480156106ae575f80fd5b506104056106bd3660046129ca565b61166a565b3480156106cd575f80fd5b506102696117ea565b3480156106e1575f80fd5b506102146106f0366004612a2c565b6117f9565b348015610700575f80fd5b506102cc61070f3660046128db565b611826565b5f61071e82611863565b92915050565b606061072e611887565b83518551146107585760405162461bcd60e51b815260040161074f90612a5d565b60405180910390fd5b82518551146107795760405162461bcd60e51b815260040161074f90612a5d565b815185511461079a5760405162461bcd60e51b815260040161074f90612a5d565b6064855111156107f85760405162461bcd60e51b8152602060048201526024808201527f457069634d696e744e46543a20546f6f206d616e7920746f6b656e7320746f206044820152631b5a5b9d60e21b606482015260840161074f565b5f855167ffffffffffffffff811115610813576108136124cb565b60405190808252806020026020018201604052801561083c578160200160208202803683370190505b5090505f5b86518110156108df576108ba87828151811061085f5761085f612aa0565b602002602001015187838151811061087957610879612aa0565b602002602001015187848151811061089357610893612aa0565b60200260200101518785815181106108ad576108ad612aa0565b602002602001015161166a565b8282815181106108cc576108cc612aa0565b6020908102919091010152600101610841565b5095945050505050565b60605f80546108f790612ab4565b80601f016020809104026020016040519081016040528092919081815260200182805461092390612ab4565b801561096e5780601f106109455761010080835404028352916020019161096e565b820191905f5260205f20905b81548152906001019060200180831161095157829003601f168201915b5050505050905090565b5f610982826118b2565b505f828152600460205260409020546001600160a01b031661071e565b6109aa8282336118e9565b5050565b6001600160a01b0382166109d757604051633250574960e11b81525f600482015260240161074f565b5f6109e38383336118f6565b9050836001600160a01b0316816001600160a01b031614610a31576040516364283d7b60e01b81526001600160a01b038086166004830152602482018490528216604482015260640161074f565b50505050565b5f828152600c60209081526040808320815180830190925280546001600160a01b0316808352600190910154928201929092528291610a7c575f809250925050610aa3565b5f612710826020015186610a909190612b00565b610a9a9190612b17565b91519350909150505b9250929050565b610ab26119e3565b4780610b0a5760405162461bcd60e51b815260206004820152602160248201527f457069634d696e744e46543a204e6f2066756e647320746f20776974686472616044820152607760f81b606482015260840161074f565b6007546040516001600160a01b039091169082156108fc029083905f818181858888f193505050501580156109aa573d5f803e3d5ffd5b610b496119e3565b610b51611a10565b565b60605f6001600854610b659190612b36565b90505f60015b828111610bb357846001600160a01b0316610b8582611a65565b6001600160a01b031603610ba15781610b9d81612b49565b9250505b80610bab81612b49565b915050610b6b565b505f8167ffffffffffffffff811115610bce57610bce6124cb565b604051908082528060200260200182016040528015610bf7578160200160208202803683370190505b5090505f60015b848111610c6457866001600160a01b0316610c1882611a65565b6001600160a01b031603610c525780838381518110610c3957610c39612aa0565b602090810291909101015281610c4e81612b49565b9250505b80610c5c81612b49565b915050610bfe565b509095945050505050565b610c8983838360405180602001604052805f815250611647565b505050565b6109aa5f82336118f6565b805f610ca482611a65565b6001600160a01b031603610cca5760405162461bcd60e51b815260040161074f90612b61565b610cd2611a7f565b610cda611887565b5f828152600b602052604090205460ff16610d375760405162461bcd60e51b815260206004820152601f60248201527f457069634d696e744e46543a20546f6b656e206e6f7420666f722073616c6500604482015260640161074f565b5f828152600a60205260409020600481015460ff1615610d995760405162461bcd60e51b815260206004820152601f60248201527f457069634d696e744e46543a20546f6b656e20616c726561647920736f6c6400604482015260640161074f565b8060030154341015610df75760405162461bcd60e51b815260206004820152602160248201527f457069634d696e744e46543a20496e73756666696369656e74207061796d656e6044820152601d60fa1b606482015260840161074f565b5f80610e07858460030154610a37565b915091505f612710846003015460fa610e209190612b00565b610e2a9190612b17565b90505f81838660030154610e3e9190612b36565b610e489190612b36565b60048601805460ff199081166001179091555f898152600b60205260409020805490911690559050610e7b303389611aad565b5f83118015610e9257506001600160a01b03841615155b15610ecc576040516001600160a01b0385169084156108fc029085905f818181858888f19350505050158015610eca573d5f803e3d5ffd5b505b8115610f0b576007546040516001600160a01b039091169083156108fc029084905f818181858888f19350505050158015610f09573d5f803e3d5ffd5b505b60018501546040516001600160a01b039091169082156108fc029083905f818181858888f19350505050158015610f44573d5f803e3d5ffd5b508460030154341115610f8d57600385015433906108fc90610f669034612b36565b6040518115909202915f818181858888f19350505050158015610f8b573d5f803e3d5ffd5b505b6001850154600386015460405190815233916001600160a01b03169089907f2820044bbebd591ee7d08b7d81dd01945a1a32706da693a946e532d6d98842589060200160405180910390a450505050506109aa60017f9b779b17422d0df92223018b32b4d1fa46e071723d6817e2486d003becc55f0055565b5f60016008546110169190612b36565b905090565b5f61071e826118b2565b60605f60016008546110379190612b36565b90505f60015b828111611097575f818152600b602052604090205460ff16801561107257505f818152600a602052604090206004015460ff16155b15611085578161108181612b49565b9250505b8061108f81612b49565b91505061103d565b505f8167ffffffffffffffff8111156110b2576110b26124cb565b6040519080825280602002602001820160405280156110db578160200160208202803683370190505b5090505f60015b84811161115a575f818152600b602052604090205460ff16801561111757505f818152600a602052604090206004015460ff16155b15611148578083838151811061112f5761112f612aa0565b60209081029190910101528161114481612b49565b9250505b8061115281612b49565b9150506110e2565b5090949350505050565b5f6001600160a01b03821661118e576040516322718ad960e21b81525f600482015260240161074f565b506001600160a01b03165f9081526003602052604090205490565b6111b16119e3565b610b515f611ab8565b6111c26119e3565b610b51611b09565b6111d26119e3565b60096109aa8282612be6565b815f6111e982611a65565b6001600160a01b03160361120f5760405162461bcd60e51b815260040161074f90612b61565b823361121a8261101b565b6001600160a01b0316146112705760405162461bcd60e51b815260206004820152601c60248201527f457069634d696e744e46543a204e6f7420746f6b656e206f776e657200000000604482015260640161074f565b611278611887565b5f83116112d95760405162461bcd60e51b815260206004820152602960248201527f457069634d696e744e46543a205072696365206d75737420626520677265617460448201526806572207468616e20360bc1b606482015260840161074f565b5f848152600b602052604090205460ff16156113415760405162461bcd60e51b815260206004820152602160248201527f457069634d696e744e46543a20546f6b656e20616c7265616479206c697374656044820152601960fa1b606482015260840161074f565b61134c333086611aad565b6040805160c08101825285815233602080830182815230848601908152606085018981525f608087018181524260a089019081528d8352600a8752898320985189559451600189810180546001600160a01b039384166001600160a01b031991821617909155955160028b01805491909316961695909517905591516003880155905160048701805491151560ff199283161790559251600590960195909555600b90925292849020805490931617909155905185907fd2ab19646d6f9fdd37206f962b4ebaab8a4a23ad87f7695e7e1736803cb8bf74906114319087815260200190565b60405180910390a350505050565b6060600180546108f790612ab4565b805f61145982611a65565b6001600160a01b03160361147f5760405162461bcd60e51b815260040161074f90612b61565b611487611887565b5f828152600b602052604090205460ff166114e45760405162461bcd60e51b815260206004820152601d60248201527f457069634d696e744e46543a20546f6b656e206e6f74206c6973746564000000604482015260640161074f565b5f828152600a6020526040902060018101546001600160a01b0316331461154d5760405162461bcd60e51b815260206004820152601b60248201527f457069634d696e744e46543a204e6f74207468652073656c6c65720000000000604482015260640161074f565b600481015460ff16156115a25760405162461bcd60e51b815260206004820152601f60248201527f457069634d696e744e46543a20546f6b656e20616c726561647920736f6c6400604482015260640161074f565b6115ad303385611aad565b5f838152600b60209081526040808320805460ff19908116909155600a9092528083208381556001810180546001600160a01b0319908116909155600282018054909116905560038101849055600481018054909316909255600590910182905551339185917fb765e971c123cbdac007f49987b1aac638149f995ba62034fc509604cac5f01e9190a3505050565b6109aa338383611b4c565b6116528484846109ae565b610a313385858585611c14565b606061071e82611d3c565b5f611673611887565b6001600160a01b0385166116da5760405162461bcd60e51b815260206004820152602860248201527f457069634d696e744e46543a2043616e6e6f74206d696e7420746f207a65726f604482015267206164647265737360c01b606482015260840161074f565b5f8451116117395760405162461bcd60e51b815260206004820152602660248201527f457069634d696e744e46543a20546f6b656e205552492063616e6e6f7420626560448201526520656d70747960d01b606482015260840161074f565b6103e882111561175b5760405162461bcd60e51b815260040161074f90612ca2565b600880549081905f61176c83612b49565b919050555061177b8682611dbd565b6117858186611dd6565b6001600160a01b0384161561179f5761179f818585611e25565b856001600160a01b0316817f06becd955c918828f6e985541acbf49cc842c9e9bd569fffc7698e721ef13575876040516117d99190612831565b60405180910390a395945050505050565b6060600980546108f790612ab4565b6001600160a01b039182165f90815260056020908152604080832093909416825291909152205460ff1690565b61182e6119e3565b6001600160a01b03811661185757604051631e4fbdf760e01b81525f600482015260240161074f565b61186081611ab8565b50565b5f6001600160e01b03198216632483248360e11b148061071e575061071e82611f28565b600754600160a01b900460ff1615610b515760405163d93c066560e01b815260040160405180910390fd5b5f806118bd83611a65565b90506001600160a01b03811661071e57604051637e27328960e01b81526004810184905260240161074f565b610c898383836001611f77565b5f8061190184611a65565b90506001600160a01b0383161561191d5761191d81848661207b565b6001600160a01b03811615611957576119385f855f80611f77565b6001600160a01b0381165f90815260036020526040902080545f190190555b6001600160a01b03851615611985576001600160a01b0385165f908152600360205260409020805460010190555b5f8481526002602052604080822080546001600160a01b0319166001600160a01b0389811691821790925591518793918516917fddf252ad1be2c89b69c2b068fc378daa952ba7f163c4a11628f55a4df523b3ef91a4949350505050565b6007546001600160a01b03163314610b515760405163118cdaa760e01b815233600482015260240161074f565b611a186120df565b6007805460ff60a01b191690557f5db9ee0a495bf2e6ff9c91a7834c1ba4fdd244a5e8aa4e537bd38aeae4b073aa335b6040516001600160a01b03909116815260200160405180910390a1565b5f908152600260205260409020546001600160a01b031690565b611a87612109565b60027f9b779b17422d0df92223018b32b4d1fa46e071723d6817e2486d003becc55f0055565b610a3182825f6118f6565b600780546001600160a01b038381166001600160a01b0319831681179093556040519116919082907f8be0079c531659141344cd1fd0a4f28419497f9722a3daafe3b4186f6b6457e0905f90a35050565b611b11611887565b6007805460ff60a01b1916600160a01b1790557f62e78cea01bee320cd4e420270b5ea74000d11b0c9f74754ebdbfc544b05a258611a483390565b6001600160a01b038316611b755760405163a9fbf51f60e01b81525f600482015260240161074f565b6001600160a01b038216611ba757604051630b61174360e31b81526001600160a01b038316600482015260240161074f565b6001600160a01b038381165f81815260056020908152604080832094871680845294825291829020805460ff191686151590811790915591519182527f17307eab39ab6107e8899845ad3d59bd9653f200f220920489ca2b5937696c3191015b60405180910390a3505050565b6001600160a01b0383163b15611d3557604051630a85bd0160e11b81526001600160a01b0384169063150b7a0290611c56908890889087908790600401612cea565b6020604051808303815f875af1925050508015611c90575060408051601f3d908101601f19168201909252611c8d91810190612d26565b60015b611cf7573d808015611cbd576040519150601f19603f3d011682016040523d82523d5f602084013e611cc2565b606091505b5080515f03611cef57604051633250574960e11b81526001600160a01b038516600482015260240161074f565b805160208201fd5b6001600160e01b03198116630a85bd0160e11b14611d3357604051633250574960e11b81526001600160a01b038516600482015260240161074f565b505b5050505050565b6060611d47826118b2565b505f611d5d60408051602081019091525f815290565b90505f611d698461214b565b905081515f03611d7a579392505050565b805115611dac578181604051602001611d94929190612d41565b60405160208183030381529060405292505050919050565b611db5846121ea565b949350505050565b6109aa828260405180602001604052805f81525061225b565b5f828152600660205260409020611ded8282612be6565b506040518281527ff8e1a15aba9398e019f0b49df1a4fde98ee17ae345cb5f6b5e2c27f5033e8ce79060200160405180910390a15050565b6001600160a01b038216611e8a5760405162461bcd60e51b815260206004820152602660248201527f457069634d696e744e46543a20496e76616c696420726f79616c7479207265636044820152651a5c1a595b9d60d21b606482015260840161074f565b6103e8811115611eac5760405162461bcd60e51b815260040161074f90612ca2565b6040805180820182526001600160a01b0384811680835260208084018681525f898152600c8352869020945185546001600160a01b031916941693909317845591516001909301929092559151838152909185917f49018ca4b3b4f0c8442e69b201303bb7f7919a14033768ce71ad07ba63a348a39101611c07565b5f6001600160e01b031982166380ac58cd60e01b1480611f5857506001600160e01b03198216635b5e139f60e01b145b8061071e57506301ffc9a760e01b6001600160e01b031983161461071e565b8080611f8b57506001600160a01b03821615155b1561204c575f611f9a846118b2565b90506001600160a01b03831615801590611fc65750826001600160a01b0316816001600160a01b031614155b8015611fd95750611fd781846117f9565b155b156120025760405163a9fbf51f60e01b81526001600160a01b038416600482015260240161074f565b811561204a5783856001600160a01b0316826001600160a01b03167f8c5be1e5ebec7d5bd14f71427d1e84f3dd0314c0f7b2291e5b200ac8c7c3b92560405160405180910390a45b505b50505f90815260046020526040902080546001600160a01b0319166001600160a01b0392909216919091179055565b612086838383612272565b610c89576001600160a01b0383166120b457604051637e27328960e01b81526004810182905260240161074f565b60405163177e802f60e01b81526001600160a01b03831660048201526024810182905260440161074f565b600754600160a01b900460ff16610b5157604051638dfc202b60e01b815260040160405180910390fd5b7f9b779b17422d0df92223018b32b4d1fa46e071723d6817e2486d003becc55f0054600203610b5157604051633ee5aeb560e01b815260040160405180910390fd5b5f81815260066020526040902080546060919061216790612ab4565b80601f016020809104026020016040519081016040528092919081815260200182805461219390612ab4565b80156121de5780601f106121b5576101008083540402835291602001916121de565b820191905f5260205f20905b8154815290600101906020018083116121c157829003601f168201915b50505050509050919050565b60606121f5826118b2565b505f61220b60408051602081019091525f815290565b90505f8151116122295760405180602001604052805f815250612254565b80612233846122d3565b604051602001612244929190612d41565b6040516020818303038152906040525b9392505050565b6122658383612363565b610c89335f858585611c14565b5f6001600160a01b03831615801590611db55750826001600160a01b0316846001600160a01b031614806122ab57506122ab84846117f9565b80611db55750505f908152600460205260409020546001600160a01b03908116911614919050565b60605f6122df836123c4565b60010190505f8167ffffffffffffffff8111156122fe576122fe6124cb565b6040519080825280601f01601f191660200182016040528015612328576020820181803683370190505b5090508181016020015b5f19016f181899199a1a9b1b9c1cb0b131b232b360811b600a86061a8153600a850494508461233257509392505050565b6001600160a01b03821661238c57604051633250574960e11b81525f600482015260240161074f565b5f61239883835f6118f6565b90506001600160a01b03811615610c89576040516339e3563760e11b81525f600482015260240161074f565b5f8072184f03e93ff9f4daa797ed6e38ed64bf6a1f0160401b83106124025772184f03e93ff9f4daa797ed6e38ed64bf6a1f0160401b830492506040015b6d04ee2d6d415b85acef8100000000831061242e576d04ee2d6d415b85acef8100000000830492506020015b662386f26fc10000831061244c57662386f26fc10000830492506010015b6305f5e1008310612464576305f5e100830492506008015b612710831061247857612710830492506004015b6064831061248a576064830492506002015b600a831061071e5760010192915050565b6001600160e01b031981168114611860575f80fd5b5f602082840312156124c0575f80fd5b81356122548161249b565b634e487b7160e01b5f52604160045260245ffd5b604051601f8201601f1916810167ffffffffffffffff81118282101715612508576125086124cb565b604052919050565b5f67ffffffffffffffff821115612529576125296124cb565b5060051b60200190565b80356001600160a01b0381168114612549575f80fd5b919050565b5f82601f83011261255d575f80fd5b8135602061257261256d83612510565b6124df565b8083825260208201915060208460051b870101935086841115612593575f80fd5b602086015b848110156125b6576125a981612533565b8352918301918301612598565b509695505050505050565b5f67ffffffffffffffff8311156125da576125da6124cb565b6125ed601f8401601f19166020016124df565b9050828152838383011115612600575f80fd5b828260208301375f602084830101529392505050565b5f82601f830112612625575f80fd5b612254838335602085016125c1565b5f82601f830112612643575f80fd5b8135602061265361256d83612510565b8083825260208201915060208460051b870101935086841115612674575f80fd5b602086015b848110156125b65780358352918301918301612679565b5f805f80608085870312156126a3575f80fd5b843567ffffffffffffffff808211156126ba575f80fd5b6126c68883890161254e565b95506020915081870135818111156126dc575f80fd5b8701601f810189136126ec575f80fd5b80356126fa61256d82612510565b81815260059190911b8201840190848101908b831115612718575f80fd5b8584015b8381101561274e57803586811115612732575f80fd5b6127408e8983890101612616565b84525091860191860161271c565b5097505050506040870135915080821115612767575f80fd5b6127738883890161254e565b93506060870135915080821115612788575f80fd5b5061279587828801612634565b91505092959194509250565b602080825282518282018190525f9190848201906040850190845b818110156127d8578351835292840192918401916001016127bc565b50909695505050505050565b5f5b838110156127fe5781810151838201526020016127e6565b50505f910152565b5f815180845261281d8160208601602086016127e4565b601f01601f19169290920160200192915050565b602081525f6122546020830184612806565b5f60208284031215612853575f80fd5b5035919050565b5f806040838503121561286b575f80fd5b61287483612533565b946020939093013593505050565b5f805f60608486031215612894575f80fd5b61289d84612533565b92506128ab60208501612533565b9150604084013590509250925092565b5f80604083850312156128cc575f80fd5b50508035926020909101359150565b5f602082840312156128eb575f80fd5b61225482612533565b5f60208284031215612904575f80fd5b813567ffffffffffffffff81111561291a575f80fd5b611db584828501612616565b5f8060408385031215612937575f80fd5b61294083612533565b915060208301358015158114612954575f80fd5b809150509250929050565b5f805f8060808587031215612972575f80fd5b61297b85612533565b935061298960208601612533565b925060408501359150606085013567ffffffffffffffff8111156129ab575f80fd5b8501601f810187136129bb575f80fd5b612795878235602084016125c1565b5f805f80608085870312156129dd575f80fd5b6129e685612533565b9350602085013567ffffffffffffffff811115612a01575f80fd5b612a0d87828801612616565b935050612a1c60408601612533565b9396929550929360600135925050565b5f8060408385031215612a3d575f80fd5b612a4683612533565b9150612a5460208401612533565b90509250929050565b60208082526023908201527f457069634d696e744e46543a20417272617973206c656e677468206d69736d616040820152620e8c6d60eb1b606082015260800190565b634e487b7160e01b5f52603260045260245ffd5b600181811c90821680612ac857607f821691505b602082108103612ae657634e487b7160e01b5f52602260045260245ffd5b50919050565b634e487b7160e01b5f52601160045260245ffd5b808202811582820484141761071e5761071e612aec565b5f82612b3157634e487b7160e01b5f52601260045260245ffd5b500490565b8181038181111561071e5761071e612aec565b5f60018201612b5a57612b5a612aec565b5060010190565b60208082526021908201527f457069634d696e744e46543a20546f6b656e20646f6573206e6f7420657869736040820152601d60fa1b606082015260800190565b601f821115610c8957805f5260205f20601f840160051c81016020851015612bc75750805b601f840160051c820191505b81811015611d35575f8155600101612bd3565b815167ffffffffffffffff811115612c0057612c006124cb565b612c1481612c0e8454612ab4565b84612ba2565b602080601f831160018114612c47575f8415612c305750858301515b5f19600386901b1c1916600185901b178555611d33565b5f85815260208120601f198616915b82811015612c7557888601518255948401946001909101908401612c56565b5085821015612c9257878501515f19600388901b60f8161c191681555b5050505050600190811b01905550565b60208082526028908201527f457069634d696e744e46543a20526f79616c74792070657263656e74616765206040820152670e8dede40d0d2ced60c31b606082015260800190565b6001600160a01b03858116825284166020820152604081018390526080606082018190525f90612d1c90830184612806565b9695505050505050565b5f60208284031215612d36575f80fd5b81516122548161249b565b5f8351612d528184602088016127e4565b835190830190612d668183602088016127e4565b0194935050505056fea264697066735822122009dfff636725590ed7d11516534dfa395fa4a44bd1320952590662351fadc95b64736f6c63430008180033","opcodes":"PUSH1 0x80 PUSH1 0x40 MSTORE PUSH1 0x1 PUSH1 0x8 SSTORE PUSH1 0xFA PUSH1 0xD SSTORE CALLVALUE DUP1 ISZERO PUSH3 0x1A JUMPI PUSH0 DUP1 REVERT JUMPDEST POP PUSH1 0x40 MLOAD PUSH3 0x3146 CODESIZE SUB DUP1 PUSH3 0x3146 DUP4 CODECOPY DUP2 ADD PUSH1 0x40 DUP2 SWAP1 MSTORE PUSH3 0x3D SWAP2 PUSH3 0x1D7 JUMP JUMPDEST CALLER DUP3 DUP3 PUSH0 PUSH3 0x4D DUP4 DUP3 PUSH3 0x2C7 JUMP JUMPDEST POP PUSH1 0x1 PUSH3 0x5C DUP3 DUP3 PUSH3 0x2C7 JUMP JUMPDEST POP POP POP PUSH1 0x1 PUSH1 0x1 PUSH1 0xA0 SHL SUB DUP2 AND PUSH3 0x8D JUMPI PUSH1 0x40 MLOAD PUSH4 0x1E4FBDF7 PUSH1 0xE0 SHL DUP2 MSTORE PUSH0 PUSH1 0x4 DUP3 ADD MSTORE PUSH1 0x24 ADD PUSH1 0x40 MLOAD DUP1 SWAP2 SUB SWAP1 REVERT JUMPDEST PUSH3 0x98 DUP2 PUSH3 0xC5 JUMP JUMPDEST POP POP PUSH1 0x1 PUSH32 0x9B779B17422D0DF92223018B32B4D1FA46E071723D6817E2486D003BECC55F00 SSTORE POP PUSH3 0x393 JUMP JUMPDEST PUSH1 0x7 DUP1 SLOAD PUSH1 0x1 PUSH1 0x1 PUSH1 0xA0 SHL SUB DUP4 DUP2 AND PUSH1 0x1 PUSH1 0x1 PUSH1 0xA0 SHL SUB NOT DUP4 AND DUP2 OR SWAP1 SWAP4 SSTORE PUSH1 0x40 MLOAD SWAP2 AND SWAP2 SWAP1 DUP3 SWAP1 PUSH32 0x8BE0079C531659141344CD1FD0A4F28419497F9722A3DAAFE3B4186F6B6457E0 SWAP1 PUSH0 SWAP1 LOG3 POP POP JUMP JUMPDEST PUSH4 0x4E487B71 PUSH1 0xE0 SHL PUSH0 MSTORE PUSH1 0x41 PUSH1 0x4 MSTORE PUSH1 0x24 PUSH0 REVERT JUMPDEST PUSH0 DUP3 PUSH1 0x1F DUP4 ADD SLT PUSH3 0x13A JUMPI PUSH0 DUP1 REVERT JUMPDEST DUP2 MLOAD PUSH1 0x1 PUSH1 0x1 PUSH1 0x40 SHL SUB DUP1 DUP3 GT ISZERO PUSH3 0x157 JUMPI PUSH3 0x157 PUSH3 0x116 JUMP JUMPDEST PUSH1 0x40 MLOAD PUSH1 0x1F DUP4 ADD PUSH1 0x1F NOT SWAP1 DUP2 AND PUSH1 0x3F ADD AND DUP2 ADD SWAP1 DUP3 DUP3 GT DUP2 DUP4 LT OR ISZERO PUSH3 0x182 JUMPI PUSH3 0x182 PUSH3 0x116 JUMP JUMPDEST DUP2 PUSH1 0x40 MSTORE DUP4 DUP2 MSTORE PUSH1 0x20 SWAP3 POP DUP7 PUSH1 0x20 DUP6 DUP9 ADD ADD GT ISZERO PUSH3 0x19F JUMPI PUSH0 DUP1 REVERT JUMPDEST PUSH0 SWAP2 POP JUMPDEST DUP4 DUP3 LT ISZERO PUSH3 0x1C2 JUMPI DUP6 DUP3 ADD DUP4 ADD MLOAD DUP2 DUP4 ADD DUP5 ADD MSTORE SWAP1 DUP3 ADD SWAP1 PUSH3 0x1A3 JUMP JUMPDEST PUSH0 PUSH1 0x20 DUP6 DUP4 ADD ADD MSTORE DUP1 SWAP5 POP POP POP POP POP SWAP3 SWAP2 POP POP JUMP JUMPDEST PUSH0 DUP1 PUSH1 0x40 DUP4 DUP6 SUB SLT ISZERO PUSH3 0x1E9 JUMPI PUSH0 DUP1 REVERT JUMPDEST DUP3 MLOAD PUSH1 0x1 PUSH1 0x1 PUSH1 0x40 SHL SUB DUP1 DUP3 GT ISZERO PUSH3 0x200 JUMPI PUSH0 DUP1 REVERT JUMPDEST PUSH3 0x20E DUP7 DUP4 DUP8 ADD PUSH3 0x12A JUMP JUMPDEST SWAP4 POP PUSH1 0x20 DUP6 ADD MLOAD SWAP2 POP DUP1 DUP3 GT ISZERO PUSH3 0x224 JUMPI PUSH0 DUP1 REVERT JUMPDEST POP PUSH3 0x233 DUP6 DUP3 DUP7 ADD PUSH3 0x12A JUMP JUMPDEST SWAP2 POP POP SWAP3 POP SWAP3 SWAP1 POP JUMP JUMPDEST PUSH1 0x1 DUP2 DUP2 SHR SWAP1 DUP3 AND DUP1 PUSH3 0x252 JUMPI PUSH1 0x7F DUP3 AND SWAP2 POP JUMPDEST PUSH1 0x20 DUP3 LT DUP2 SUB PUSH3 0x271 JUMPI PUSH4 0x4E487B71 PUSH1 0xE0 SHL PUSH0 MSTORE PUSH1 0x22 PUSH1 0x4 MSTORE PUSH1 0x24 PUSH0 REVERT JUMPDEST POP SWAP2 SWAP1 POP JUMP JUMPDEST PUSH1 0x1F DUP3 GT ISZERO PUSH3 0x2C2 JUMPI DUP1 PUSH0 MSTORE PUSH1 0x20 PUSH0 KECCAK256 PUSH1 0x1F DUP5 ADD PUSH1 0x5 SHR DUP2 ADD PUSH1 0x20 DUP6 LT ISZERO PUSH3 0x29E JUMPI POP DUP1 JUMPDEST PUSH1 0x1F DUP5 ADD PUSH1 0x5 SHR DUP3 ADD SWAP2 POP JUMPDEST DUP2 DUP2 LT ISZERO PUSH3 0x2BF JUMPI PUSH0 DUP2 SSTORE PUSH1 0x1 ADD PUSH3 0x2AA JUMP JUMPDEST POP POP JUMPDEST POP POP POP JUMP JUMPDEST DUP2 MLOAD PUSH1 0x1 PUSH1 0x1 PUSH1 0x40 SHL SUB DUP2 GT ISZERO PUSH3 0x2E3 JUMPI PUSH3 0x2E3 PUSH3 0x116 JUMP JUMPDEST PUSH3 0x2FB DUP2 PUSH3 0x2F4 DUP5 SLOAD PUSH3 0x23D JUMP JUMPDEST DUP5 PUSH3 0x277 JUMP JUMPDEST PUSH1 0x20 DUP1 PUSH1 0x1F DUP4 GT PUSH1 0x1 DUP2 EQ PUSH3 0x331 JUMPI PUSH0 DUP5 ISZERO PUSH3 0x319 JUMPI POP DUP6 DUP4 ADD MLOAD JUMPDEST PUSH0 NOT PUSH1 0x3 DUP7 SWAP1 SHL SHR NOT AND PUSH1 0x1 DUP6 SWAP1 SHL OR DUP6 SSTORE PUSH3 0x38B JUMP JUMPDEST PUSH0 DUP6 DUP2 MSTORE PUSH1 0x20 DUP2 KECCAK256 PUSH1 0x1F NOT DUP7 AND SWAP2 JUMPDEST DUP3 DUP2 LT ISZERO PUSH3 0x361 JUMPI DUP9 DUP7 ADD MLOAD DUP3 SSTORE SWAP5 DUP5 ADD SWAP5 PUSH1 0x1 SWAP1 SWAP2 ADD SWAP1 DUP5 ADD PUSH3 0x340 JUMP JUMPDEST POP DUP6 DUP3 LT ISZERO PUSH3 0x37F JUMPI DUP8 DUP6 ADD MLOAD PUSH0 NOT PUSH1 0x3 DUP9 SWAP1 SHL PUSH1 0xF8 AND SHR NOT AND DUP2 SSTORE JUMPDEST POP POP PUSH1 0x1 DUP5 PUSH1 0x1 SHL ADD DUP6 SSTORE JUMPDEST POP POP POP POP POP POP JUMP JUMPDEST PUSH2 0x2DA5 DUP1 PUSH3 0x3A1 PUSH0 CODECOPY PUSH0 RETURN INVALID PUSH1 0x80 PUSH1 0x40 MSTORE PUSH1 0x4 CALLDATASIZE LT PUSH2 0x1F1 JUMPI PUSH0 CALLDATALOAD PUSH1 0xE0 SHR DUP1 PUSH4 0x65E4E1C0 GT PUSH2 0x108 JUMPI DUP1 PUSH4 0x961F0944 GT PUSH2 0x9D JUMPI DUP1 PUSH4 0xC87B56DD GT PUSH2 0x6D JUMPI DUP1 PUSH4 0xC87B56DD EQ PUSH2 0x684 JUMPI DUP1 PUSH4 0xE3E3DA89 EQ PUSH2 0x6A3 JUMPI DUP1 PUSH4 0xE8A3D485 EQ PUSH2 0x6C2 JUMPI DUP1 PUSH4 0xE985E9C5 EQ PUSH2 0x6D6 JUMPI DUP1 PUSH4 0xF2FDE38B EQ PUSH2 0x6F5 JUMPI PUSH0 DUP1 REVERT JUMPDEST DUP1 PUSH4 0x961F0944 EQ PUSH2 0x51A JUMPI DUP1 PUSH4 0xA22CB465 EQ PUSH2 0x539 JUMPI DUP1 PUSH4 0xB88D4FDE EQ PUSH2 0x558 JUMPI DUP1 PUSH4 0xC7BE7A49 EQ PUSH2 0x577 JUMPI PUSH0 DUP1 REVERT JUMPDEST DUP1 PUSH4 0x8DA5CB5B GT PUSH2 0xD8 JUMPI DUP1 PUSH4 0x8DA5CB5B EQ PUSH2 0x4AB JUMPI DUP1 PUSH4 0x938E3D7B EQ PUSH2 0x4C8 JUMPI DUP1 PUSH4 0x94383F14 EQ PUSH2 0x4E7 JUMPI DUP1 PUSH4 0x95D89B41 EQ PUSH2 0x506 JUMPI PUSH0 DUP1 REVERT JUMPDEST DUP1 PUSH4 0x65E4E1C0 EQ PUSH2 0x450 JUMPI DUP1 PUSH4 0x70A08231 EQ PUSH2 0x464 JUMPI DUP1 PUSH4 0x715018A6 EQ PUSH2 0x483 JUMPI DUP1 PUSH4 0x8456CB59 EQ PUSH2 0x497 JUMPI PUSH0 DUP1 REVERT JUMPDEST DUP1 PUSH4 0x3F4BA83A GT PUSH2 0x189 JUMPI DUP1 PUSH4 0x4FED1C94 GT PUSH2 0x159 JUMPI DUP1 PUSH4 0x4FED1C94 EQ PUSH2 0x3B0 JUMPI DUP1 PUSH4 0x51ED8288 EQ PUSH2 0x3DE JUMPI DUP1 PUSH4 0x56189236 EQ PUSH2 0x3F1 JUMPI DUP1 PUSH4 0x5C975ABB EQ PUSH2 0x413 JUMPI DUP1 PUSH4 0x6352211E EQ PUSH2 0x431 JUMPI PUSH0 DUP1 REVERT JUMPDEST DUP1 PUSH4 0x3F4BA83A EQ PUSH2 0x33F JUMPI DUP1 PUSH4 0x40398D67 EQ PUSH2 0x353 JUMPI DUP1 PUSH4 0x42842E0E EQ PUSH2 0x372 JUMPI DUP1 PUSH4 0x42966C68 EQ PUSH2 0x391 JUMPI PUSH0 DUP1 REVERT JUMPDEST DUP1 PUSH4 0x95EA7B3 GT PUSH2 0x1C4 JUMPI DUP1 PUSH4 0x95EA7B3 EQ PUSH2 0x2AD JUMPI DUP1 PUSH4 0x23B872DD EQ PUSH2 0x2CE JUMPI DUP1 PUSH4 0x2A55205A EQ PUSH2 0x2ED JUMPI DUP1 PUSH4 0x3CCFD60B EQ PUSH2 0x32B JUMPI PUSH0 DUP1 REVERT JUMPDEST DUP1 PUSH4 0x1FFC9A7 EQ PUSH2 0x1F5 JUMPI DUP1 PUSH4 0x34F4B25 EQ PUSH2 0x229 JUMPI DUP1 PUSH4 0x6FDDE03 EQ PUSH2 0x255 JUMPI DUP1 PUSH4 0x81812FC EQ PUSH2 0x276 JUMPI JUMPDEST PUSH0 DUP1 REVERT JUMPDEST CALLVALUE DUP1 ISZERO PUSH2 0x200 JUMPI PUSH0 DUP1 REVERT JUMPDEST POP PUSH2 0x214 PUSH2 0x20F CALLDATASIZE PUSH1 0x4 PUSH2 0x24B0 JUMP JUMPDEST PUSH2 0x714 JUMP JUMPDEST PUSH1 0x40 MLOAD SWAP1 ISZERO ISZERO DUP2 MSTORE PUSH1 0x20 ADD JUMPDEST PUSH1 0x40 MLOAD DUP1 SWAP2 SUB SWAP1 RETURN JUMPDEST CALLVALUE DUP1 ISZERO PUSH2 0x234 JUMPI PUSH0 DUP1 REVERT JUMPDEST POP PUSH2 0x248 PUSH2 0x243 CALLDATASIZE PUSH1 0x4 PUSH2 0x2690 JUMP JUMPDEST PUSH2 0x724 JUMP JUMPDEST PUSH1 0x40 MLOAD PUSH2 0x220 SWAP2 SWAP1 PUSH2 0x27A1 JUMP JUMPDEST CALLVALUE DUP1 ISZERO PUSH2 0x260 JUMPI PUSH0 DUP1 REVERT JUMPDEST POP PUSH2 0x269 PUSH2 0x8E9 JUMP JUMPDEST PUSH1 0x40 MLOAD PUSH2 0x220 SWAP2 SWAP1 PUSH2 0x2831 JUMP JUMPDEST CALLVALUE DUP1 ISZERO PUSH2 0x281 JUMPI PUSH0 DUP1 REVERT JUMPDEST POP PUSH2 0x295 PUSH2 0x290 CALLDATASIZE PUSH1 0x4 PUSH2 0x2843 JUMP JUMPDEST PUSH2 0x978 JUMP JUMPDEST PUSH1 0x40 MLOAD PUSH1 0x1 PUSH1 0x1 PUSH1 0xA0 SHL SUB SWAP1 SWAP2 AND DUP2 MSTORE PUSH1 0x20 ADD PUSH2 0x220 JUMP JUMPDEST CALLVALUE DUP1 ISZERO PUSH2 0x2B8 JUMPI PUSH0 DUP1 REVERT JUMPDEST POP PUSH2 0x2CC PUSH2 0x2C7 CALLDATASIZE PUSH1 0x4 PUSH2 0x285A JUMP JUMPDEST PUSH2 0x99F JUMP JUMPDEST STOP JUMPDEST CALLVALUE DUP1 ISZERO PUSH2 0x2D9 JUMPI PUSH0 DUP1 REVERT JUMPDEST POP PUSH2 0x2CC PUSH2 0x2E8 CALLDATASIZE PUSH1 0x4 PUSH2 0x2882 JUMP JUMPDEST PUSH2 0x9AE JUMP JUMPDEST CALLVALUE DUP1 ISZERO PUSH2 0x2F8 JUMPI PUSH0 DUP1 REVERT JUMPDEST POP PUSH2 0x30C PUSH2 0x307 CALLDATASIZE PUSH1 0x4 PUSH2 0x28BB JUMP JUMPDEST PUSH2 0xA37 JUMP JUMPDEST PUSH1 0x40 DUP1 MLOAD PUSH1 0x1 PUSH1 0x1 PUSH1 0xA0 SHL SUB SWAP1 SWAP4 AND DUP4 MSTORE PUSH1 0x20 DUP4 ADD SWAP2 SWAP1 SWAP2 MSTORE ADD PUSH2 0x220 JUMP JUMPDEST CALLVALUE DUP1 ISZERO PUSH2 0x336 JUMPI PUSH0 DUP1 REVERT JUMPDEST POP PUSH2 0x2CC PUSH2 0xAAA JUMP JUMPDEST CALLVALUE DUP1 ISZERO PUSH2 0x34A JUMPI PUSH0 DUP1 REVERT JUMPDEST POP PUSH2 0x2CC PUSH2 0xB41 JUMP JUMPDEST CALLVALUE DUP1 ISZERO PUSH2 0x35E JUMPI PUSH0 DUP1 REVERT JUMPDEST POP PUSH2 0x248 PUSH2 0x36D CALLDATASIZE PUSH1 0x4 PUSH2 0x28DB JUMP JUMPDEST PUSH2 0xB53 JUMP JUMPDEST CALLVALUE DUP1 ISZERO PUSH2 0x37D JUMPI PUSH0 DUP1 REVERT JUMPDEST POP PUSH2 0x2CC PUSH2 0x38C CALLDATASIZE PUSH1 0x4 PUSH2 0x2882 JUMP JUMPDEST PUSH2 0xC6F JUMP JUMPDEST CALLVALUE DUP1 ISZERO PUSH2 0x39C JUMPI PUSH0 DUP1 REVERT JUMPDEST POP PUSH2 0x2CC PUSH2 0x3AB CALLDATASIZE PUSH1 0x4 PUSH2 0x2843 JUMP JUMPDEST PUSH2 0xC8E JUMP JUMPDEST CALLVALUE DUP1 ISZERO PUSH2 0x3BB JUMPI PUSH0 DUP1 REVERT JUMPDEST POP PUSH2 0x214 PUSH2 0x3CA CALLDATASIZE PUSH1 0x4 PUSH2 0x2843 JUMP JUMPDEST PUSH0 SWAP1 DUP2 MSTORE PUSH1 0xB PUSH1 0x20 MSTORE PUSH1 0x40 SWAP1 KECCAK256 SLOAD PUSH1 0xFF AND SWAP1 JUMP JUMPDEST PUSH2 0x2CC PUSH2 0x3EC CALLDATASIZE PUSH1 0x4 PUSH2 0x2843 JUMP JUMPDEST PUSH2 0xC99 JUMP JUMPDEST CALLVALUE DUP1 ISZERO PUSH2 0x3FC JUMPI PUSH0 DUP1 REVERT JUMPDEST POP PUSH2 0x405 PUSH2 0x1006 JUMP JUMPDEST PUSH1 0x40 MLOAD SWAP1 DUP2 MSTORE PUSH1 0x20 ADD PUSH2 0x220 JUMP JUMPDEST CALLVALUE DUP1 ISZERO PUSH2 0x41E JUMPI PUSH0 DUP1 REVERT JUMPDEST POP PUSH1 0x7 SLOAD PUSH1 0x1 PUSH1 0xA0 SHL SWAP1 DIV PUSH1 0xFF AND PUSH2 0x214 JUMP JUMPDEST CALLVALUE DUP1 ISZERO PUSH2 0x43C JUMPI PUSH0 DUP1 REVERT JUMPDEST POP PUSH2 0x295 PUSH2 0x44B CALLDATASIZE PUSH1 0x4 PUSH2 0x2843 JUMP JUMPDEST PUSH2 0x101B JUMP JUMPDEST CALLVALUE DUP1 ISZERO PUSH2 0x45B JUMPI PUSH0 DUP1 REVERT JUMPDEST POP PUSH2 0x248 PUSH2 0x1025 JUMP JUMPDEST CALLVALUE DUP1 ISZERO PUSH2 0x46F JUMPI PUSH0 DUP1 REVERT JUMPDEST POP PUSH2 0x405 PUSH2 0x47E CALLDATASIZE PUSH1 0x4 PUSH2 0x28DB JUMP JUMPDEST PUSH2 0x1164 JUMP JUMPDEST CALLVALUE DUP1 ISZERO PUSH2 0x48E JUMPI PUSH0 DUP1 REVERT JUMPDEST POP PUSH2 0x2CC PUSH2 0x11A9 JUMP JUMPDEST CALLVALUE DUP1 ISZERO PUSH2 0x4A2 JUMPI PUSH0 DUP1 REVERT JUMPDEST POP PUSH2 0x2CC PUSH2 0x11BA JUMP JUMPDEST CALLVALUE DUP1 ISZERO PUSH2 0x4B6 JUMPI PUSH0 DUP1 REVERT JUMPDEST POP PUSH1 0x7 SLOAD PUSH1 0x1 PUSH1 0x1 PUSH1 0xA0 SHL SUB AND PUSH2 0x295 JUMP JUMPDEST CALLVALUE DUP1 ISZERO PUSH2 0x4D3 JUMPI PUSH0 DUP1 REVERT JUMPDEST POP PUSH2 0x2CC PUSH2 0x4E2 CALLDATASIZE PUSH1 0x4 PUSH2 0x28F4 JUMP JUMPDEST PUSH2 0x11CA JUMP JUMPDEST CALLVALUE DUP1 ISZERO PUSH2 0x4F2 JUMPI PUSH0 DUP1 REVERT JUMPDEST POP PUSH2 0x2CC PUSH2 0x501 CALLDATASIZE PUSH1 0x4 PUSH2 0x28BB JUMP JUMPDEST PUSH2 0x11DE JUMP JUMPDEST CALLVALUE DUP1 ISZERO PUSH2 0x511 JUMPI PUSH0 DUP1 REVERT JUMPDEST POP PUSH2 0x269 PUSH2 0x143F JUMP JUMPDEST CALLVALUE DUP1 ISZERO PUSH2 0x525 JUMPI PUSH0 DUP1 REVERT JUMPDEST POP PUSH2 0x2CC PUSH2 0x534 CALLDATASIZE PUSH1 0x4 PUSH2 0x2843 JUMP JUMPDEST PUSH2 0x144E JUMP JUMPDEST CALLVALUE DUP1 ISZERO PUSH2 0x544 JUMPI PUSH0 DUP1 REVERT JUMPDEST POP PUSH2 0x2CC PUSH2 0x553 CALLDATASIZE PUSH1 0x4 PUSH2 0x2926 JUMP JUMPDEST PUSH2 0x163C JUMP JUMPDEST CALLVALUE DUP1 ISZERO PUSH2 0x563 JUMPI PUSH0 DUP1 REVERT JUMPDEST POP PUSH2 0x2CC PUSH2 0x572 CALLDATASIZE PUSH1 0x4 PUSH2 0x295F JUMP JUMPDEST PUSH2 0x1647 JUMP JUMPDEST CALLVALUE DUP1 ISZERO PUSH2 0x582 JUMPI PUSH0 DUP1 REVERT JUMPDEST POP PUSH2 0x62D PUSH2 0x591 CALLDATASIZE PUSH1 0x4 PUSH2 0x2843 JUMP JUMPDEST PUSH1 0x40 DUP1 MLOAD PUSH1 0xC0 DUP2 ADD DUP3 MSTORE PUSH0 DUP1 DUP3 MSTORE PUSH1 0x20 DUP3 ADD DUP2 SWAP1 MSTORE SWAP2 DUP2 ADD DUP3 SWAP1 MSTORE PUSH1 0x60 DUP2 ADD DUP3 SWAP1 MSTORE PUSH1 0x80 DUP2 ADD DUP3 SWAP1 MSTORE PUSH1 0xA0 DUP2 ADD SWAP2 SWAP1 SWAP2 MSTORE POP PUSH0 SWAP1 DUP2 MSTORE PUSH1 0xA PUSH1 0x20 SWAP1 DUP2 MSTORE PUSH1 0x40 SWAP2 DUP3 SWAP1 KECCAK256 DUP3 MLOAD PUSH1 0xC0 DUP2 ADD DUP5 MSTORE DUP2 SLOAD DUP2 MSTORE PUSH1 0x1 DUP3 ADD SLOAD PUSH1 0x1 PUSH1 0x1 PUSH1 0xA0 SHL SUB SWAP1 DUP2 AND SWAP4 DUP3 ADD SWAP4 SWAP1 SWAP4 MSTORE PUSH1 0x2 DUP3 ADD SLOAD SWAP1 SWAP3 AND SWAP3 DUP3 ADD SWAP3 SWAP1 SWAP3 MSTORE PUSH1 0x3 DUP3 ADD SLOAD PUSH1 0x60 DUP3 ADD MSTORE PUSH1 0x4 DUP3 ADD SLOAD PUSH1 0xFF AND ISZERO ISZERO PUSH1 0x80 DUP3 ADD MSTORE PUSH1 0x5 SWAP1 SWAP2 ADD SLOAD PUSH1 0xA0 DUP3 ADD MSTORE SWAP1 JUMP JUMPDEST PUSH1 0x40 DUP1 MLOAD DUP3 MLOAD DUP2 MSTORE PUSH1 0x20 DUP1 DUP5 ADD MLOAD PUSH1 0x1 PUSH1 0x1 PUSH1 0xA0 SHL SUB SWAP1 DUP2 AND SWAP2 DUP4 ADD SWAP2 SWAP1 SWAP2 MSTORE DUP4 DUP4 ADD MLOAD AND SWAP2 DUP2 ADD SWAP2 SWAP1 SWAP2 MSTORE PUSH1 0x60 DUP1 DUP4 ADD MLOAD SWAP1 DUP3 ADD MSTORE PUSH1 0x80 DUP1 DUP4 ADD MLOAD ISZERO ISZERO SWAP1 DUP3 ADD MSTORE PUSH1 0xA0 SWAP2 DUP3 ADD MLOAD SWAP2 DUP2 ADD SWAP2 SWAP1 SWAP2 MSTORE PUSH1 0xC0 ADD PUSH2 0x220 JUMP JUMPDEST CALLVALUE DUP1 ISZERO PUSH2 0x68F JUMPI PUSH0 DUP1 REVERT JUMPDEST POP PUSH2 0x269 PUSH2 0x69E CALLDATASIZE PUSH1 0x4 PUSH2 0x2843 JUMP JUMPDEST PUSH2 0x165F JUMP JUMPDEST CALLVALUE DUP1 ISZERO PUSH2 0x6AE JUMPI PUSH0 DUP1 REVERT JUMPDEST POP PUSH2 0x405 PUSH2 0x6BD CALLDATASIZE PUSH1 0x4 PUSH2 0x29CA JUMP JUMPDEST PUSH2 0x166A JUMP JUMPDEST CALLVALUE DUP1 ISZERO PUSH2 0x6CD JUMPI PUSH0 DUP1 REVERT JUMPDEST POP PUSH2 0x269 PUSH2 0x17EA JUMP JUMPDEST CALLVALUE DUP1 ISZERO PUSH2 0x6E1 JUMPI PUSH0 DUP1 REVERT JUMPDEST POP PUSH2 0x214 PUSH2 0x6F0 CALLDATASIZE PUSH1 0x4 PUSH2 0x2A2C JUMP JUMPDEST PUSH2 0x17F9 JUMP JUMPDEST CALLVALUE DUP1 ISZERO PUSH2 0x700 JUMPI PUSH0 DUP1 REVERT JUMPDEST POP PUSH2 0x2CC PUSH2 0x70F CALLDATASIZE PUSH1 0x4 PUSH2 0x28DB JUMP JUMPDEST PUSH2 0x1826 JUMP JUMPDEST PUSH0 PUSH2 0x71E DUP3 PUSH2 0x1863 JUMP JUMPDEST SWAP3 SWAP2 POP POP JUMP JUMPDEST PUSH1 0x60 PUSH2 0x72E PUSH2 0x1887 JUMP JUMPDEST DUP4 MLOAD DUP6 MLOAD EQ PUSH2 0x758 JUMPI PUSH1 0x40 MLOAD PUSH3 0x461BCD PUSH1 0xE5 SHL DUP2 MSTORE PUSH1 0x4 ADD PUSH2 0x74F SWAP1 PUSH2 0x2A5D JUMP JUMPDEST PUSH1 0x40 MLOAD DUP1 SWAP2 SUB SWAP1 REVERT JUMPDEST DUP3 MLOAD DUP6 MLOAD EQ PUSH2 0x779 JUMPI PUSH1 0x40 MLOAD PUSH3 0x461BCD PUSH1 0xE5 SHL DUP2 MSTORE PUSH1 0x4 ADD PUSH2 0x74F SWAP1 PUSH2 0x2A5D JUMP JUMPDEST DUP2 MLOAD DUP6 MLOAD EQ PUSH2 0x79A JUMPI PUSH1 0x40 MLOAD PUSH3 0x461BCD PUSH1 0xE5 SHL DUP2 MSTORE PUSH1 0x4 ADD PUSH2 0x74F SWAP1 PUSH2 0x2A5D JUMP JUMPDEST PUSH1 0x64 DUP6 MLOAD GT ISZERO PUSH2 0x7F8 JUMPI PUSH1 0x40 MLOAD PUSH3 0x461BCD PUSH1 0xE5 SHL DUP2 MSTORE PUSH1 0x20 PUSH1 0x4 DUP3 ADD MSTORE PUSH1 0x24 DUP1 DUP3 ADD MSTORE PUSH32 0x457069634D696E744E46543A20546F6F206D616E7920746F6B656E7320746F20 PUSH1 0x44 DUP3 ADD MSTORE PUSH4 0x1B5A5B9D PUSH1 0xE2 SHL PUSH1 0x64 DUP3 ADD MSTORE PUSH1 0x84 ADD PUSH2 0x74F JUMP JUMPDEST PUSH0 DUP6 MLOAD PUSH8 0xFFFFFFFFFFFFFFFF DUP2 GT ISZERO PUSH2 0x813 JUMPI PUSH2 0x813 PUSH2 0x24CB JUMP JUMPDEST PUSH1 0x40 MLOAD SWAP1 DUP1 DUP3 MSTORE DUP1 PUSH1 0x20 MUL PUSH1 0x20 ADD DUP3 ADD PUSH1 0x40 MSTORE DUP1 ISZERO PUSH2 0x83C JUMPI DUP2 PUSH1 0x20 ADD PUSH1 0x20 DUP3 MUL DUP1 CALLDATASIZE DUP4 CALLDATACOPY ADD SWAP1 POP JUMPDEST POP SWAP1 POP PUSH0 JUMPDEST DUP7 MLOAD DUP2 LT ISZERO PUSH2 0x8DF JUMPI PUSH2 0x8BA DUP8 DUP3 DUP2 MLOAD DUP2 LT PUSH2 0x85F JUMPI PUSH2 0x85F PUSH2 0x2AA0 JUMP JUMPDEST PUSH1 0x20 MUL PUSH1 0x20 ADD ADD MLOAD DUP8 DUP4 DUP2 MLOAD DUP2 LT PUSH2 0x879 JUMPI PUSH2 0x879 PUSH2 0x2AA0 JUMP JUMPDEST PUSH1 0x20 MUL PUSH1 0x20 ADD ADD MLOAD DUP8 DUP5 DUP2 MLOAD DUP2 LT PUSH2 0x893 JUMPI PUSH2 0x893 PUSH2 0x2AA0 JUMP JUMPDEST PUSH1 0x20 MUL PUSH1 0x20 ADD ADD MLOAD DUP8 DUP6 DUP2 MLOAD DUP2 LT PUSH2 0x8AD JUMPI PUSH2 0x8AD PUSH2 0x2AA0 JUMP JUMPDEST PUSH1 0x20 MUL PUSH1 0x20 ADD ADD MLOAD PUSH2 0x166A JUMP JUMPDEST DUP3 DUP3 DUP2 MLOAD DUP2 LT PUSH2 0x8CC JUMPI PUSH2 0x8CC PUSH2 0x2AA0 JUMP JUMPDEST PUSH1 0x20 SWAP1 DUP2 MUL SWAP2 SWAP1 SWAP2 ADD ADD MSTORE PUSH1 0x1 ADD PUSH2 0x841 JUMP JUMPDEST POP SWAP6 SWAP5 POP POP POP POP POP JUMP JUMPDEST PUSH1 0x60 PUSH0 DUP1 SLOAD PUSH2 0x8F7 SWAP1 PUSH2 0x2AB4 JUMP JUMPDEST DUP1 PUSH1 0x1F ADD PUSH1 0x20 DUP1 SWAP2 DIV MUL PUSH1 0x20 ADD PUSH1 0x40 MLOAD SWAP1 DUP2 ADD PUSH1 0x40 MSTORE DUP1 SWAP3 SWAP2 SWAP1 DUP2 DUP2 MSTORE PUSH1 0x20 ADD DUP3 DUP1 SLOAD PUSH2 0x923 SWAP1 PUSH2 0x2AB4 JUMP JUMPDEST DUP1 ISZERO PUSH2 0x96E JUMPI DUP1 PUSH1 0x1F LT PUSH2 0x945 JUMPI PUSH2 0x100 DUP1 DUP4 SLOAD DIV MUL DUP4 MSTORE SWAP2 PUSH1 0x20 ADD SWAP2 PUSH2 0x96E JUMP JUMPDEST DUP3 ADD SWAP2 SWAP1 PUSH0 MSTORE PUSH1 0x20 PUSH0 KECCAK256 SWAP1 JUMPDEST DUP2 SLOAD DUP2 MSTORE SWAP1 PUSH1 0x1 ADD SWAP1 PUSH1 0x20 ADD DUP1 DUP4 GT PUSH2 0x951 JUMPI DUP3 SWAP1 SUB PUSH1 0x1F AND DUP3 ADD SWAP2 JUMPDEST POP POP POP POP POP SWAP1 POP SWAP1 JUMP JUMPDEST PUSH0 PUSH2 0x982 DUP3 PUSH2 0x18B2 JUMP JUMPDEST POP PUSH0 DUP3 DUP2 MSTORE PUSH1 0x4 PUSH1 0x20 MSTORE PUSH1 0x40 SWAP1 KECCAK256 SLOAD PUSH1 0x1 PUSH1 0x1 PUSH1 0xA0 SHL SUB AND PUSH2 0x71E JUMP JUMPDEST PUSH2 0x9AA DUP3 DUP3 CALLER PUSH2 0x18E9 JUMP JUMPDEST POP POP JUMP JUMPDEST PUSH1 0x1 PUSH1 0x1 PUSH1 0xA0 SHL SUB DUP3 AND PUSH2 0x9D7 JUMPI PUSH1 0x40 MLOAD PUSH4 0x32505749 PUSH1 0xE1 SHL DUP2 MSTORE PUSH0 PUSH1 0x4 DUP3 ADD MSTORE PUSH1 0x24 ADD PUSH2 0x74F JUMP JUMPDEST PUSH0 PUSH2 0x9E3 DUP4 DUP4 CALLER PUSH2 0x18F6 JUMP JUMPDEST SWAP1 POP DUP4 PUSH1 0x1 PUSH1 0x1 PUSH1 0xA0 SHL SUB AND DUP2 PUSH1 0x1 PUSH1 0x1 PUSH1 0xA0 SHL SUB AND EQ PUSH2 0xA31 JUMPI PUSH1 0x40 MLOAD PUSH4 0x64283D7B PUSH1 0xE0 SHL DUP2 MSTORE PUSH1 0x1 PUSH1 0x1 PUSH1 0xA0 SHL SUB DUP1 DUP7 AND PUSH1 0x4 DUP4 ADD MSTORE PUSH1 0x24 DUP3 ADD DUP5 SWAP1 MSTORE DUP3 AND PUSH1 0x44 DUP3 ADD MSTORE PUSH1 0x64 ADD PUSH2 0x74F JUMP JUMPDEST POP POP POP POP JUMP JUMPDEST PUSH0 DUP3 DUP2 MSTORE PUSH1 0xC PUSH1 0x20 SWAP1 DUP2 MSTORE PUSH1 0x40 DUP1 DUP4 KECCAK256 DUP2 MLOAD DUP1 DUP4 ADD SWAP1 SWAP3 MSTORE DUP1 SLOAD PUSH1 0x1 PUSH1 0x1 PUSH1 0xA0 SHL SUB AND DUP1 DUP4 MSTORE PUSH1 0x1 SWAP1 SWAP2 ADD SLOAD SWAP3 DUP3 ADD SWAP3 SWAP1 SWAP3 MSTORE DUP3 SWAP2 PUSH2 0xA7C JUMPI PUSH0 DUP1 SWAP3 POP SWAP3 POP POP PUSH2 0xAA3 JUMP JUMPDEST PUSH0 PUSH2 0x2710 DUP3 PUSH1 0x20 ADD MLOAD DUP7 PUSH2 0xA90 SWAP2 SWAP1 PUSH2 0x2B00 JUMP JUMPDEST PUSH2 0xA9A SWAP2 SWAP1 PUSH2 0x2B17 JUMP JUMPDEST SWAP2 MLOAD SWAP4 POP SWAP1 SWAP2 POP POP JUMPDEST SWAP3 POP SWAP3 SWAP1 POP JUMP JUMPDEST PUSH2 0xAB2 PUSH2 0x19E3 JUMP JUMPDEST SELFBALANCE DUP1 PUSH2 0xB0A JUMPI PUSH1 0x40 MLOAD PUSH3 0x461BCD PUSH1 0xE5 SHL DUP2 MSTORE PUSH1 0x20 PUSH1 0x4 DUP3 ADD MSTORE PUSH1 0x21 PUSH1 0x24 DUP3 ADD MSTORE PUSH32 0x457069634D696E744E46543A204E6F2066756E647320746F2077697468647261 PUSH1 0x44 DUP3 ADD MSTORE PUSH1 0x77 PUSH1 0xF8 SHL PUSH1 0x64 DUP3 ADD MSTORE PUSH1 0x84 ADD PUSH2 0x74F JUMP JUMPDEST PUSH1 0x7 SLOAD PUSH1 0x40 MLOAD PUSH1 0x1 PUSH1 0x1 PUSH1 0xA0 SHL SUB SWAP1 SWAP2 AND SWAP1 DUP3 ISZERO PUSH2 0x8FC MUL SWAP1 DUP4 SWAP1 PUSH0 DUP2 DUP2 DUP2 DUP6 DUP9 DUP9 CALL SWAP4 POP POP POP POP ISZERO DUP1 ISZERO PUSH2 0x9AA JUMPI RETURNDATASIZE PUSH0 DUP1 RETURNDATACOPY RETURNDATASIZE PUSH0 REVERT JUMPDEST PUSH2 0xB49 PUSH2 0x19E3 JUMP JUMPDEST PUSH2 0xB51 PUSH2 0x1A10 JUMP JUMPDEST JUMP JUMPDEST PUSH1 0x60 PUSH0 PUSH1 0x1 PUSH1 0x8 SLOAD PUSH2 0xB65 SWAP2 SWAP1 PUSH2 0x2B36 JUMP JUMPDEST SWAP1 POP PUSH0 PUSH1 0x1 JUMPDEST DUP3 DUP2 GT PUSH2 0xBB3 JUMPI DUP5 PUSH1 0x1 PUSH1 0x1 PUSH1 0xA0 SHL SUB AND PUSH2 0xB85 DUP3 PUSH2 0x1A65 JUMP JUMPDEST PUSH1 0x1 PUSH1 0x1 PUSH1 0xA0 SHL SUB AND SUB PUSH2 0xBA1 JUMPI DUP2 PUSH2 0xB9D DUP2 PUSH2 0x2B49 JUMP JUMPDEST SWAP3 POP POP JUMPDEST DUP1 PUSH2 0xBAB DUP2 PUSH2 0x2B49 JUMP JUMPDEST SWAP2 POP POP PUSH2 0xB6B JUMP JUMPDEST POP PUSH0 DUP2 PUSH8 0xFFFFFFFFFFFFFFFF DUP2 GT ISZERO PUSH2 0xBCE JUMPI PUSH2 0xBCE PUSH2 0x24CB JUMP JUMPDEST PUSH1 0x40 MLOAD SWAP1 DUP1 DUP3 MSTORE DUP1 PUSH1 0x20 MUL PUSH1 0x20 ADD DUP3 ADD PUSH1 0x40 MSTORE DUP1 ISZERO PUSH2 0xBF7 JUMPI DUP2 PUSH1 0x20 ADD PUSH1 0x20 DUP3 MUL DUP1 CALLDATASIZE DUP4 CALLDATACOPY ADD SWAP1 POP JUMPDEST POP SWAP1 POP PUSH0 PUSH1 0x1 JUMPDEST DUP5 DUP2 GT PUSH2 0xC64 JUMPI DUP7 PUSH1 0x1 PUSH1 0x1 PUSH1 0xA0 SHL SUB AND PUSH2 0xC18 DUP3 PUSH2 0x1A65 JUMP JUMPDEST PUSH1 0x1 PUSH1 0x1 PUSH1 0xA0 SHL SUB AND SUB PUSH2 0xC52 JUMPI DUP1 DUP4 DUP4 DUP2 MLOAD DUP2 LT PUSH2 0xC39 JUMPI PUSH2 0xC39 PUSH2 0x2AA0 JUMP JUMPDEST PUSH1 0x20 SWAP1 DUP2 MUL SWAP2 SWAP1 SWAP2 ADD ADD MSTORE DUP2 PUSH2 0xC4E DUP2 PUSH2 0x2B49 JUMP JUMPDEST SWAP3 POP POP JUMPDEST DUP1 PUSH2 0xC5C DUP2 PUSH2 0x2B49 JUMP JUMPDEST SWAP2 POP POP PUSH2 0xBFE JUMP JUMPDEST POP SWAP1 SWAP6 SWAP5 POP POP POP POP POP JUMP JUMPDEST PUSH2 0xC89 DUP4 DUP4 DUP4 PUSH1 0x40 MLOAD DUP1 PUSH1 0x20 ADD PUSH1 0x40 MSTORE DUP1 PUSH0 DUP2 MSTORE POP PUSH2 0x1647 JUMP JUMPDEST POP POP POP JUMP JUMPDEST PUSH2 0x9AA PUSH0 DUP3 CALLER PUSH2 0x18F6 JUMP JUMPDEST DUP1 PUSH0 PUSH2 0xCA4 DUP3 PUSH2 0x1A65 JUMP JUMPDEST PUSH1 0x1 PUSH1 0x1 PUSH1 0xA0 SHL SUB AND SUB PUSH2 0xCCA JUMPI PUSH1 0x40 MLOAD PUSH3 0x461BCD PUSH1 0xE5 SHL DUP2 MSTORE PUSH1 0x4 ADD PUSH2 0x74F SWAP1 PUSH2 0x2B61 JUMP JUMPDEST PUSH2 0xCD2 PUSH2 0x1A7F JUMP JUMPDEST PUSH2 0xCDA PUSH2 0x1887 JUMP JUMPDEST PUSH0 DUP3 DUP2 MSTORE PUSH1 0xB PUSH1 0x20 MSTORE PUSH1 0x40 SWAP1 KECCAK256 SLOAD PUSH1 0xFF AND PUSH2 0xD37 JUMPI PUSH1 0x40 MLOAD PUSH3 0x461BCD PUSH1 0xE5 SHL DUP2 MSTORE PUSH1 0x20 PUSH1 0x4 DUP3 ADD MSTORE PUSH1 0x1F PUSH1 0x24 DUP3 ADD MSTORE PUSH32 0x457069634D696E744E46543A20546F6B656E206E6F7420666F722073616C6500 PUSH1 0x44 DUP3 ADD MSTORE PUSH1 0x64 ADD PUSH2 0x74F JUMP JUMPDEST PUSH0 DUP3 DUP2 MSTORE PUSH1 0xA PUSH1 0x20 MSTORE PUSH1 0x40 SWAP1 KECCAK256 PUSH1 0x4 DUP2 ADD SLOAD PUSH1 0xFF AND ISZERO PUSH2 0xD99 JUMPI PUSH1 0x40 MLOAD PUSH3 0x461BCD PUSH1 0xE5 SHL DUP2 MSTORE PUSH1 0x20 PUSH1 0x4 DUP3 ADD MSTORE PUSH1 0x1F PUSH1 0x24 DUP3 ADD MSTORE PUSH32 0x457069634D696E744E46543A20546F6B656E20616C726561647920736F6C6400 PUSH1 0x44 DUP3 ADD MSTORE PUSH1 0x64 ADD PUSH2 0x74F JUMP JUMPDEST DUP1 PUSH1 0x3 ADD SLOAD CALLVALUE LT ISZERO PUSH2 0xDF7 JUMPI PUSH1 0x40 MLOAD PUSH3 0x461BCD PUSH1 0xE5 SHL DUP2 MSTORE PUSH1 0x20 PUSH1 0x4 DUP3 ADD MSTORE PUSH1 0x21 PUSH1 0x24 DUP3 ADD MSTORE PUSH32 0x457069634D696E744E46543A20496E73756666696369656E74207061796D656E PUSH1 0x44 DUP3 ADD MSTORE PUSH1 0x1D PUSH1 0xFA SHL PUSH1 0x64 DUP3 ADD MSTORE PUSH1 0x84 ADD PUSH2 0x74F JUMP JUMPDEST PUSH0 DUP1 PUSH2 0xE07 DUP6 DUP5 PUSH1 0x3 ADD SLOAD PUSH2 0xA37 JUMP JUMPDEST SWAP2 POP SWAP2 POP PUSH0 PUSH2 0x2710 DUP5 PUSH1 0x3 ADD SLOAD PUSH1 0xFA PUSH2 0xE20 SWAP2 SWAP1 PUSH2 0x2B00 JUMP JUMPDEST PUSH2 0xE2A SWAP2 SWAP1 PUSH2 0x2B17 JUMP JUMPDEST SWAP1 POP PUSH0 DUP2 DUP4 DUP7 PUSH1 0x3 ADD SLOAD PUSH2 0xE3E SWAP2 SWAP1 PUSH2 0x2B36 JUMP JUMPDEST PUSH2 0xE48 SWAP2 SWAP1 PUSH2 0x2B36 JUMP JUMPDEST PUSH1 0x4 DUP7 ADD DUP1 SLOAD PUSH1 0xFF NOT SWAP1 DUP2 AND PUSH1 0x1 OR SWAP1 SWAP2 SSTORE PUSH0 DUP10 DUP2 MSTORE PUSH1 0xB PUSH1 0x20 MSTORE PUSH1 0x40 SWAP1 KECCAK256 DUP1 SLOAD SWAP1 SWAP2 AND SWAP1 SSTORE SWAP1 POP PUSH2 0xE7B ADDRESS CALLER DUP10 PUSH2 0x1AAD JUMP JUMPDEST PUSH0 DUP4 GT DUP1 ISZERO PUSH2 0xE92 JUMPI POP PUSH1 0x1 PUSH1 0x1 PUSH1 0xA0 SHL SUB DUP5 AND ISZERO ISZERO JUMPDEST ISZERO PUSH2 0xECC JUMPI PUSH1 0x40 MLOAD PUSH1 0x1 PUSH1 0x1 PUSH1 0xA0 SHL SUB DUP6 AND SWAP1 DUP5 ISZERO PUSH2 0x8FC MUL SWAP1 DUP6 SWAP1 PUSH0 DUP2 DUP2 DUP2 DUP6 DUP9 DUP9 CALL SWAP4 POP POP POP POP ISZERO DUP1 ISZERO PUSH2 0xECA JUMPI RETURNDATASIZE PUSH0 DUP1 RETURNDATACOPY RETURNDATASIZE PUSH0 REVERT JUMPDEST POP JUMPDEST DUP2 ISZERO PUSH2 0xF0B JUMPI PUSH1 0x7 SLOAD PUSH1 0x40 MLOAD PUSH1 0x1 PUSH1 0x1 PUSH1 0xA0 SHL SUB SWAP1 SWAP2 AND SWAP1 DUP4 ISZERO PUSH2 0x8FC MUL SWAP1 DUP5 SWAP1 PUSH0 DUP2 DUP2 DUP2 DUP6 DUP9 DUP9 CALL SWAP4 POP POP POP POP ISZERO DUP1 ISZERO PUSH2 0xF09 JUMPI RETURNDATASIZE PUSH0 DUP1 RETURNDATACOPY RETURNDATASIZE PUSH0 REVERT JUMPDEST POP JUMPDEST PUSH1 0x1 DUP6 ADD SLOAD PUSH1 0x40 MLOAD PUSH1 0x1 PUSH1 0x1 PUSH1 0xA0 SHL SUB SWAP1 SWAP2 AND SWAP1 DUP3 ISZERO PUSH2 0x8FC MUL SWAP1 DUP4 SWAP1 PUSH0 DUP2 DUP2 DUP2 DUP6 DUP9 DUP9 CALL SWAP4 POP POP POP POP ISZERO DUP1 ISZERO PUSH2 0xF44 JUMPI RETURNDATASIZE PUSH0 DUP1 RETURNDATACOPY RETURNDATASIZE PUSH0 REVERT JUMPDEST POP DUP5 PUSH1 0x3 ADD SLOAD CALLVALUE GT ISZERO PUSH2 0xF8D JUMPI PUSH1 0x3 DUP6 ADD SLOAD CALLER SWAP1 PUSH2 0x8FC SWAP1 PUSH2 0xF66 SWAP1 CALLVALUE PUSH2 0x2B36 JUMP JUMPDEST PUSH1 0x40 MLOAD DUP2 ISZERO SWAP1 SWAP3 MUL SWAP2 PUSH0 DUP2 DUP2 DUP2 DUP6 DUP9 DUP9 CALL SWAP4 POP POP POP POP ISZERO DUP1 ISZERO PUSH2 0xF8B JUMPI RETURNDATASIZE PUSH0 DUP1 RETURNDATACOPY RETURNDATASIZE PUSH0 REVERT JUMPDEST POP JUMPDEST PUSH1 0x1 DUP6 ADD SLOAD PUSH1 0x3 DUP7 ADD SLOAD PUSH1 0x40 MLOAD SWAP1 DUP2 MSTORE CALLER SWAP2 PUSH1 0x1 PUSH1 0x1 PUSH1 0xA0 SHL SUB AND SWAP1 DUP10 SWAP1 PUSH32 0x2820044BBEBD591EE7D08B7D81DD01945A1A32706DA693A946E532D6D9884258 SWAP1 PUSH1 0x20 ADD PUSH1 0x40 MLOAD DUP1 SWAP2 SUB SWAP1 LOG4 POP POP POP POP POP PUSH2 0x9AA PUSH1 0x1 PUSH32 0x9B779B17422D0DF92223018B32B4D1FA46E071723D6817E2486D003BECC55F00 SSTORE JUMP JUMPDEST PUSH0 PUSH1 0x1 PUSH1 0x8 SLOAD PUSH2 0x1016 SWAP2 SWAP1 PUSH2 0x2B36 JUMP JUMPDEST SWAP1 POP SWAP1 JUMP JUMPDEST PUSH0 PUSH2 0x71E DUP3 PUSH2 0x18B2 JUMP JUMPDEST PUSH1 0x60 PUSH0 PUSH1 0x1 PUSH1 0x8 SLOAD PUSH2 0x1037 SWAP2 SWAP1 PUSH2 0x2B36 JUMP JUMPDEST SWAP1 POP PUSH0 PUSH1 0x1 JUMPDEST DUP3 DUP2 GT PUSH2 0x1097 JUMPI PUSH0 DUP2 DUP2 MSTORE PUSH1 0xB PUSH1 0x20 MSTORE PUSH1 0x40 SWAP1 KECCAK256 SLOAD PUSH1 0xFF AND DUP1 ISZERO PUSH2 0x1072 JUMPI POP PUSH0 DUP2 DUP2 MSTORE PUSH1 0xA PUSH1 0x20 MSTORE PUSH1 0x40 SWAP1 KECCAK256 PUSH1 0x4 ADD SLOAD PUSH1 0xFF AND ISZERO JUMPDEST ISZERO PUSH2 0x1085 JUMPI DUP2 PUSH2 0x1081 DUP2 PUSH2 0x2B49 JUMP JUMPDEST SWAP3 POP POP JUMPDEST DUP1 PUSH2 0x108F DUP2 PUSH2 0x2B49 JUMP JUMPDEST SWAP2 POP POP PUSH2 0x103D JUMP JUMPDEST POP PUSH0 DUP2 PUSH8 0xFFFFFFFFFFFFFFFF DUP2 GT ISZERO PUSH2 0x10B2 JUMPI PUSH2 0x10B2 PUSH2 0x24CB JUMP JUMPDEST PUSH1 0x40 MLOAD SWAP1 DUP1 DUP3 MSTORE DUP1 PUSH1 0x20 MUL PUSH1 0x20 ADD DUP3 ADD PUSH1 0x40 MSTORE DUP1 ISZERO PUSH2 0x10DB JUMPI DUP2 PUSH1 0x20 ADD PUSH1 0x20 DUP3 MUL DUP1 CALLDATASIZE DUP4 CALLDATACOPY ADD SWAP1 POP JUMPDEST POP SWAP1 POP PUSH0 PUSH1 0x1 JUMPDEST DUP5 DUP2 GT PUSH2 0x115A JUMPI PUSH0 DUP2 DUP2 MSTORE PUSH1 0xB PUSH1 0x20 MSTORE PUSH1 0x40 SWAP1 KECCAK256 SLOAD PUSH1 0xFF AND DUP1 ISZERO PUSH2 0x1117 JUMPI POP PUSH0 DUP2 DUP2 MSTORE PUSH1 0xA PUSH1 0x20 MSTORE PUSH1 0x40 SWAP1 KECCAK256 PUSH1 0x4 ADD SLOAD PUSH1 0xFF AND ISZERO JUMPDEST ISZERO PUSH2 0x1148 JUMPI DUP1 DUP4 DUP4 DUP2 MLOAD DUP2 LT PUSH2 0x112F JUMPI PUSH2 0x112F PUSH2 0x2AA0 JUMP JUMPDEST PUSH1 0x20 SWAP1 DUP2 MUL SWAP2 SWAP1 SWAP2 ADD ADD MSTORE DUP2 PUSH2 0x1144 DUP2 PUSH2 0x2B49 JUMP JUMPDEST SWAP3 POP POP JUMPDEST DUP1 PUSH2 0x1152 DUP2 PUSH2 0x2B49 JUMP JUMPDEST SWAP2 POP POP PUSH2 0x10E2 JUMP JUMPDEST POP SWAP1 SWAP5 SWAP4 POP POP POP POP JUMP JUMPDEST PUSH0 PUSH1 0x1 PUSH1 0x1 PUSH1 0xA0 SHL SUB DUP3 AND PUSH2 0x118E JUMPI PUSH1 0x40 MLOAD PUSH4 0x22718AD9 PUSH1 0xE2 SHL DUP2 MSTORE PUSH0 PUSH1 0x4 DUP3 ADD MSTORE PUSH1 0x24 ADD PUSH2 0x74F JUMP JUMPDEST POP PUSH1 0x1 PUSH1 0x1 PUSH1 0xA0 SHL SUB AND PUSH0 SWAP1 DUP2 MSTORE PUSH1 0x3 PUSH1 0x20 MSTORE PUSH1 0x40 SWAP1 KECCAK256 SLOAD SWAP1 JUMP JUMPDEST PUSH2 0x11B1 PUSH2 0x19E3 JUMP JUMPDEST PUSH2 0xB51 PUSH0 PUSH2 0x1AB8 JUMP JUMPDEST PUSH2 0x11C2 PUSH2 0x19E3 JUMP JUMPDEST PUSH2 0xB51 PUSH2 0x1B09 JUMP JUMPDEST PUSH2 0x11D2 PUSH2 0x19E3 JUMP JUMPDEST PUSH1 0x9 PUSH2 0x9AA DUP3 DUP3 PUSH2 0x2BE6 JUMP JUMPDEST DUP2 PUSH0 PUSH2 0x11E9 DUP3 PUSH2 0x1A65 JUMP JUMPDEST PUSH1 0x1 PUSH1 0x1 PUSH1 0xA0 SHL SUB AND SUB PUSH2 0x120F JUMPI PUSH1 0x40 MLOAD PUSH3 0x461BCD PUSH1 0xE5 SHL DUP2 MSTORE PUSH1 0x4 ADD PUSH2 0x74F SWAP1 PUSH2 0x2B61 JUMP JUMPDEST DUP3 CALLER PUSH2 0x121A DUP3 PUSH2 0x101B JUMP JUMPDEST PUSH1 0x1 PUSH1 0x1 PUSH1 0xA0 SHL SUB AND EQ PUSH2 0x1270 JUMPI PUSH1 0x40 MLOAD PUSH3 0x461BCD PUSH1 0xE5 SHL DUP2 MSTORE PUSH1 0x20 PUSH1 0x4 DUP3 ADD MSTORE PUSH1 0x1C PUSH1 0x24 DUP3 ADD MSTORE PUSH32 0x457069634D696E744E46543A204E6F7420746F6B656E206F776E657200000000 PUSH1 0x44 DUP3 ADD MSTORE PUSH1 0x64 ADD PUSH2 0x74F JUMP JUMPDEST PUSH2 0x1278 PUSH2 0x1887 JUMP JUMPDEST PUSH0 DUP4 GT PUSH2 0x12D9 JUMPI PUSH1 0x40 MLOAD PUSH3 0x461BCD PUSH1 0xE5 SHL DUP2 MSTORE PUSH1 0x20 PUSH1 0x4 DUP3 ADD MSTORE PUSH1 0x29 PUSH1 0x24 DUP3 ADD MSTORE PUSH32 0x457069634D696E744E46543A205072696365206D757374206265206772656174 PUSH1 0x44 DUP3 ADD MSTORE PUSH9 0x6572207468616E203 PUSH1 0xBC SHL PUSH1 0x64 DUP3 ADD MSTORE PUSH1 0x84 ADD PUSH2 0x74F JUMP JUMPDEST PUSH0 DUP5 DUP2 MSTORE PUSH1 0xB PUSH1 0x20 MSTORE PUSH1 0x40 SWAP1 KECCAK256 SLOAD PUSH1 0xFF AND ISZERO PUSH2 0x1341 JUMPI PUSH1 0x40 MLOAD PUSH3 0x461BCD PUSH1 0xE5 SHL DUP2 MSTORE PUSH1 0x20 PUSH1 0x4 DUP3 ADD MSTORE PUSH1 0x21 PUSH1 0x24 DUP3 ADD MSTORE PUSH32 0x457069634D696E744E46543A20546F6B656E20616C7265616479206C69737465 PUSH1 0x44 DUP3 ADD MSTORE PUSH1 0x19 PUSH1 0xFA SHL PUSH1 0x64 DUP3 ADD MSTORE PUSH1 0x84 ADD PUSH2 0x74F JUMP JUMPDEST PUSH2 0x134C CALLER ADDRESS DUP7 PUSH2 0x1AAD JUMP JUMPDEST PUSH1 0x40 DUP1 MLOAD PUSH1 0xC0 DUP2 ADD DUP3 MSTORE DUP6 DUP2 MSTORE CALLER PUSH1 0x20 DUP1 DUP4 ADD DUP3 DUP2 MSTORE ADDRESS DUP5 DUP7 ADD SWAP1 DUP2 MSTORE PUSH1 0x60 DUP6 ADD DUP10 DUP2 MSTORE PUSH0 PUSH1 0x80 DUP8 ADD DUP2 DUP2 MSTORE TIMESTAMP PUSH1 0xA0 DUP10 ADD SWAP1 DUP2 MSTORE DUP14 DUP4 MSTORE PUSH1 0xA DUP8 MSTORE DUP10 DUP4 KECCAK256 SWAP9 MLOAD DUP10 SSTORE SWAP5 MLOAD PUSH1 0x1 DUP10 DUP2 ADD DUP1 SLOAD PUSH1 0x1 PUSH1 0x1 PUSH1 0xA0 SHL SUB SWAP4 DUP5 AND PUSH1 0x1 PUSH1 0x1 PUSH1 0xA0 SHL SUB NOT SWAP2 DUP3 AND OR SWAP1 SWAP2 SSTORE SWAP6 MLOAD PUSH1 0x2 DUP12 ADD DUP1 SLOAD SWAP2 SWAP1 SWAP4 AND SWAP7 AND SWAP6 SWAP1 SWAP6 OR SWAP1 SSTORE SWAP2 MLOAD PUSH1 0x3 DUP9 ADD SSTORE SWAP1 MLOAD PUSH1 0x4 DUP8 ADD DUP1 SLOAD SWAP2 ISZERO ISZERO PUSH1 0xFF NOT SWAP3 DUP4 AND OR SWAP1 SSTORE SWAP3 MLOAD PUSH1 0x5 SWAP1 SWAP7 ADD SWAP6 SWAP1 SWAP6 SSTORE PUSH1 0xB SWAP1 SWAP3 MSTORE SWAP3 DUP5 SWAP1 KECCAK256 DUP1 SLOAD SWAP1 SWAP4 AND OR SWAP1 SWAP2 SSTORE SWAP1 MLOAD DUP6 SWAP1 PUSH32 0xD2AB19646D6F9FDD37206F962B4EBAAB8A4A23AD87F7695E7E1736803CB8BF74 SWAP1 PUSH2 0x1431 SWAP1 DUP8 DUP2 MSTORE PUSH1 0x20 ADD SWAP1 JUMP JUMPDEST PUSH1 0x40 MLOAD DUP1 SWAP2 SUB SWAP1 LOG3 POP POP POP POP JUMP JUMPDEST PUSH1 0x60 PUSH1 0x1 DUP1 SLOAD PUSH2 0x8F7 SWAP1 PUSH2 0x2AB4 JUMP JUMPDEST DUP1 PUSH0 PUSH2 0x1459 DUP3 PUSH2 0x1A65 JUMP JUMPDEST PUSH1 0x1 PUSH1 0x1 PUSH1 0xA0 SHL SUB AND SUB PUSH2 0x147F JUMPI PUSH1 0x40 MLOAD PUSH3 0x461BCD PUSH1 0xE5 SHL DUP2 MSTORE PUSH1 0x4 ADD PUSH2 0x74F SWAP1 PUSH2 0x2B61 JUMP JUMPDEST PUSH2 0x1487 PUSH2 0x1887 JUMP JUMPDEST PUSH0 DUP3 DUP2 MSTORE PUSH1 0xB PUSH1 0x20 MSTORE PUSH1 0x40 SWAP1 KECCAK256 SLOAD PUSH1 0xFF AND PUSH2 0x14E4 JUMPI PUSH1 0x40 MLOAD PUSH3 0x461BCD PUSH1 0xE5 SHL DUP2 MSTORE PUSH1 0x20 PUSH1 0x4 DUP3 ADD MSTORE PUSH1 0x1D PUSH1 0x24 DUP3 ADD MSTORE PUSH32 0x457069634D696E744E46543A20546F6B656E206E6F74206C6973746564000000 PUSH1 0x44 DUP3 ADD MSTORE PUSH1 0x64 ADD PUSH2 0x74F JUMP JUMPDEST PUSH0 DUP3 DUP2 MSTORE PUSH1 0xA PUSH1 0x20 MSTORE PUSH1 0x40 SWAP1 KECCAK256 PUSH1 0x1 DUP2 ADD SLOAD PUSH1 0x1 PUSH1 0x1 PUSH1 0xA0 SHL SUB AND CALLER EQ PUSH2 0x154D JUMPI PUSH1 0x40 MLOAD PUSH3 0x461BCD PUSH1 0xE5 SHL DUP2 MSTORE PUSH1 0x20 PUSH1 0x4 DUP3 ADD MSTORE PUSH1 0x1B PUSH1 0x24 DUP3 ADD MSTORE PUSH32 0x457069634D696E744E46543A204E6F74207468652073656C6C65720000000000 PUSH1 0x44 DUP3 ADD MSTORE PUSH1 0x64 ADD PUSH2 0x74F JUMP JUMPDEST PUSH1 0x4 DUP2 ADD SLOAD PUSH1 0xFF AND ISZERO PUSH2 0x15A2 JUMPI PUSH1 0x40 MLOAD PUSH3 0x461BCD PUSH1 0xE5 SHL DUP2 MSTORE PUSH1 0x20 PUSH1 0x4 DUP3 ADD MSTORE PUSH1 0x1F PUSH1 0x24 DUP3 ADD MSTORE PUSH32 0x457069634D696E744E46543A20546F6B656E20616C726561647920736F6C6400 PUSH1 0x44 DUP3 ADD MSTORE PUSH1 0x64 ADD PUSH2 0x74F JUMP JUMPDEST PUSH2 0x15AD ADDRESS CALLER DUP6 PUSH2 0x1AAD JUMP JUMPDEST PUSH0 DUP4 DUP2 MSTORE PUSH1 0xB PUSH1 0x20 SWAP1 DUP2 MSTORE PUSH1 0x40 DUP1 DUP4 KECCAK256 DUP1 SLOAD PUSH1 0xFF NOT SWAP1 DUP2 AND SWAP1 SWAP2 SSTORE PUSH1 0xA SWAP1 SWAP3 MSTORE DUP1 DUP4 KECCAK256 DUP4 DUP2 SSTORE PUSH1 0x1 DUP2 ADD DUP1 SLOAD PUSH1 0x1 PUSH1 0x1 PUSH1 0xA0 SHL SUB NOT SWAP1 DUP2 AND SWAP1 SWAP2 SSTORE PUSH1 0x2 DUP3 ADD DUP1 SLOAD SWAP1 SWAP2 AND SWAP1 SSTORE PUSH1 0x3 DUP2 ADD DUP5 SWAP1 SSTORE PUSH1 0x4 DUP2 ADD DUP1 SLOAD SWAP1 SWAP4 AND SWAP1 SWAP3 SSTORE PUSH1 0x5 SWAP1 SWAP2 ADD DUP3 SWAP1 SSTORE MLOAD CALLER SWAP2 DUP6 SWAP2 PUSH32 0xB765E971C123CBDAC007F49987B1AAC638149F995BA62034FC509604CAC5F01E SWAP2 SWAP1 LOG3 POP POP POP JUMP JUMPDEST PUSH2 0x9AA CALLER DUP4 DUP4 PUSH2 0x1B4C JUMP JUMPDEST PUSH2 0x1652 DUP5 DUP5 DUP5 PUSH2 0x9AE JUMP JUMPDEST PUSH2 0xA31 CALLER DUP6 DUP6 DUP6 DUP6 PUSH2 0x1C14 JUMP JUMPDEST PUSH1 0x60 PUSH2 0x71E DUP3 PUSH2 0x1D3C JUMP JUMPDEST PUSH0 PUSH2 0x1673 PUSH2 0x1887 JUMP JUMPDEST PUSH1 0x1 PUSH1 0x1 PUSH1 0xA0 SHL SUB DUP6 AND PUSH2 0x16DA JUMPI PUSH1 0x40 MLOAD PUSH3 0x461BCD PUSH1 0xE5 SHL DUP2 MSTORE PUSH1 0x20 PUSH1 0x4 DUP3 ADD MSTORE PUSH1 0x28 PUSH1 0x24 DUP3 ADD MSTORE PUSH32 0x457069634D696E744E46543A2043616E6E6F74206D696E7420746F207A65726F PUSH1 0x44 DUP3 ADD MSTORE PUSH8 0x2061646472657373 PUSH1 0xC0 SHL PUSH1 0x64 DUP3 ADD MSTORE PUSH1 0x84 ADD PUSH2 0x74F JUMP JUMPDEST PUSH0 DUP5 MLOAD GT PUSH2 0x1739 JUMPI PUSH1 0x40 MLOAD PUSH3 0x461BCD PUSH1 0xE5 SHL DUP2 MSTORE PUSH1 0x20 PUSH1 0x4 DUP3 ADD MSTORE PUSH1 0x26 PUSH1 0x24 DUP3 ADD MSTORE PUSH32 0x457069634D696E744E46543A20546F6B656E205552492063616E6E6F74206265 PUSH1 0x44 DUP3 ADD MSTORE PUSH6 0x20656D707479 PUSH1 0xD0 SHL PUSH1 0x64 DUP3 ADD MSTORE PUSH1 0x84 ADD PUSH2 0x74F JUMP JUMPDEST PUSH2 0x3E8 DUP3 GT ISZERO PUSH2 0x175B JUMPI PUSH1 0x40 MLOAD PUSH3 0x461BCD PUSH1 0xE5 SHL DUP2 MSTORE PUSH1 0x4 ADD PUSH2 0x74F SWAP1 PUSH2 0x2CA2 JUMP JUMPDEST PUSH1 0x8 DUP1 SLOAD SWAP1 DUP2 SWAP1 PUSH0 PUSH2 0x176C DUP4 PUSH2 0x2B49 JUMP JUMPDEST SWAP2 SWAP1 POP SSTORE POP PUSH2 0x177B DUP7 DUP3 PUSH2 0x1DBD JUMP JUMPDEST PUSH2 0x1785 DUP2 DUP7 PUSH2 0x1DD6 JUMP JUMPDEST PUSH1 0x1 PUSH1 0x1 PUSH1 0xA0 SHL SUB DUP5 AND ISZERO PUSH2 0x179F JUMPI PUSH2 0x179F DUP2 DUP6 DUP6 PUSH2 0x1E25 JUMP JUMPDEST DUP6 PUSH1 0x1 PUSH1 0x1 PUSH1 0xA0 SHL SUB AND DUP2 PUSH32 0x6BECD955C918828F6E985541ACBF49CC842C9E9BD569FFFC7698E721EF13575 DUP8 PUSH1 0x40 MLOAD PUSH2 0x17D9 SWAP2 SWAP1 PUSH2 0x2831 JUMP JUMPDEST PUSH1 0x40 MLOAD DUP1 SWAP2 SUB SWAP1 LOG3 SWAP6 SWAP5 POP POP POP POP POP JUMP JUMPDEST PUSH1 0x60 PUSH1 0x9 DUP1 SLOAD PUSH2 0x8F7 SWAP1 PUSH2 0x2AB4 JUMP JUMPDEST PUSH1 0x1 PUSH1 0x1 PUSH1 0xA0 SHL SUB SWAP2 DUP3 AND PUSH0 SWAP1 DUP2 MSTORE PUSH1 0x5 PUSH1 0x20 SWAP1 DUP2 MSTORE PUSH1 0x40 DUP1 DUP4 KECCAK256 SWAP4 SWAP1 SWAP5 AND DUP3 MSTORE SWAP2 SWAP1 SWAP2 MSTORE KECCAK256 SLOAD PUSH1 0xFF AND SWAP1 JUMP JUMPDEST PUSH2 0x182E PUSH2 0x19E3 JUMP JUMPDEST PUSH1 0x1 PUSH1 0x1 PUSH1 0xA0 SHL SUB DUP2 AND PUSH2 0x1857 JUMPI PUSH1 0x40 MLOAD PUSH4 0x1E4FBDF7 PUSH1 0xE0 SHL DUP2 MSTORE PUSH0 PUSH1 0x4 DUP3 ADD MSTORE PUSH1 0x24 ADD PUSH2 0x74F JUMP JUMPDEST PUSH2 0x1860 DUP2 PUSH2 0x1AB8 JUMP JUMPDEST POP JUMP JUMPDEST PUSH0 PUSH1 0x1 PUSH1 0x1 PUSH1 0xE0 SHL SUB NOT DUP3 AND PUSH4 0x24832483 PUSH1 0xE1 SHL EQ DUP1 PUSH2 0x71E JUMPI POP PUSH2 0x71E DUP3 PUSH2 0x1F28 JUMP JUMPDEST PUSH1 0x7 SLOAD PUSH1 0x1 PUSH1 0xA0 SHL SWAP1 DIV PUSH1 0xFF AND ISZERO PUSH2 0xB51 JUMPI PUSH1 0x40 MLOAD PUSH4 0xD93C0665 PUSH1 0xE0 SHL DUP2 MSTORE PUSH1 0x4 ADD PUSH1 0x40 MLOAD DUP1 SWAP2 SUB SWAP1 REVERT JUMPDEST PUSH0 DUP1 PUSH2 0x18BD DUP4 PUSH2 0x1A65 JUMP JUMPDEST SWAP1 POP PUSH1 0x1 PUSH1 0x1 PUSH1 0xA0 SHL SUB DUP2 AND PUSH2 0x71E JUMPI PUSH1 0x40 MLOAD PUSH4 0x7E273289 PUSH1 0xE0 SHL DUP2 MSTORE PUSH1 0x4 DUP2 ADD DUP5 SWAP1 MSTORE PUSH1 0x24 ADD PUSH2 0x74F JUMP JUMPDEST PUSH2 0xC89 DUP4 DUP4 DUP4 PUSH1 0x1 PUSH2 0x1F77 JUMP JUMPDEST PUSH0 DUP1 PUSH2 0x1901 DUP5 PUSH2 0x1A65 JUMP JUMPDEST SWAP1 POP PUSH1 0x1 PUSH1 0x1 PUSH1 0xA0 SHL SUB DUP4 AND ISZERO PUSH2 0x191D JUMPI PUSH2 0x191D DUP2 DUP5 DUP7 PUSH2 0x207B JUMP JUMPDEST PUSH1 0x1 PUSH1 0x1 PUSH1 0xA0 SHL SUB DUP2 AND ISZERO PUSH2 0x1957 JUMPI PUSH2 0x1938 PUSH0 DUP6 PUSH0 DUP1 PUSH2 0x1F77 JUMP JUMPDEST PUSH1 0x1 PUSH1 0x1 PUSH1 0xA0 SHL SUB DUP2 AND PUSH0 SWAP1 DUP2 MSTORE PUSH1 0x3 PUSH1 0x20 MSTORE PUSH1 0x40 SWAP1 KECCAK256 DUP1 SLOAD PUSH0 NOT ADD SWAP1 SSTORE JUMPDEST PUSH1 0x1 PUSH1 0x1 PUSH1 0xA0 SHL SUB DUP6 AND ISZERO PUSH2 0x1985 JUMPI PUSH1 0x1 PUSH1 0x1 PUSH1 0xA0 SHL SUB DUP6 AND PUSH0 SWAP1 DUP2 MSTORE PUSH1 0x3 PUSH1 0x20 MSTORE PUSH1 0x40 SWAP1 KECCAK256 DUP1 SLOAD PUSH1 0x1 ADD SWAP1 SSTORE JUMPDEST PUSH0 DUP5 DUP2 MSTORE PUSH1 0x2 PUSH1 0x20 MSTORE PUSH1 0x40 DUP1 DUP3 KECCAK256 DUP1 SLOAD PUSH1 0x1 PUSH1 0x1 PUSH1 0xA0 SHL SUB NOT AND PUSH1 0x1 PUSH1 0x1 PUSH1 0xA0 SHL SUB DUP10 DUP2 AND SWAP2 DUP3 OR SWAP1 SWAP3 SSTORE SWAP2 MLOAD DUP8 SWAP4 SWAP2 DUP6 AND SWAP2 PUSH32 0xDDF252AD1BE2C89B69C2B068FC378DAA952BA7F163C4A11628F55A4DF523B3EF SWAP2 LOG4 SWAP5 SWAP4 POP POP POP POP JUMP JUMPDEST PUSH1 0x7 SLOAD PUSH1 0x1 PUSH1 0x1 PUSH1 0xA0 SHL SUB AND CALLER EQ PUSH2 0xB51 JUMPI PUSH1 0x40 MLOAD PUSH4 0x118CDAA7 PUSH1 0xE0 SHL DUP2 MSTORE CALLER PUSH1 0x4 DUP3 ADD MSTORE PUSH1 0x24 ADD PUSH2 0x74F JUMP JUMPDEST PUSH2 0x1A18 PUSH2 0x20DF JUMP JUMPDEST PUSH1 0x7 DUP1 SLOAD PUSH1 0xFF PUSH1 0xA0 SHL NOT AND SWAP1 SSTORE PUSH32 0x5DB9EE0A495BF2E6FF9C91A7834C1BA4FDD244A5E8AA4E537BD38AEAE4B073AA CALLER JUMPDEST PUSH1 0x40 MLOAD PUSH1 0x1 PUSH1 0x1 PUSH1 0xA0 SHL SUB SWAP1 SWAP2 AND DUP2 MSTORE PUSH1 0x20 ADD PUSH1 0x40 MLOAD DUP1 SWAP2 SUB SWAP1 LOG1 JUMP JUMPDEST PUSH0 SWAP1 DUP2 MSTORE PUSH1 0x2 PUSH1 0x20 MSTORE PUSH1 0x40 SWAP1 KECCAK256 SLOAD PUSH1 0x1 PUSH1 0x1 PUSH1 0xA0 SHL SUB AND SWAP1 JUMP JUMPDEST PUSH2 0x1A87 PUSH2 0x2109 JUMP JUMPDEST PUSH1 0x2 PUSH32 0x9B779B17422D0DF92223018B32B4D1FA46E071723D6817E2486D003BECC55F00 SSTORE JUMP JUMPDEST PUSH2 0xA31 DUP3 DUP3 PUSH0 PUSH2 0x18F6 JUMP JUMPDEST PUSH1 0x7 DUP1 SLOAD PUSH1 0x1 PUSH1 0x1 PUSH1 0xA0 SHL SUB DUP4 DUP2 AND PUSH1 0x1 PUSH1 0x1 PUSH1 0xA0 SHL SUB NOT DUP4 AND DUP2 OR SWAP1 SWAP4 SSTORE PUSH1 0x40 MLOAD SWAP2 AND SWAP2 SWAP1 DUP3 SWAP1 PUSH32 0x8BE0079C531659141344CD1FD0A4F28419497F9722A3DAAFE3B4186F6B6457E0 SWAP1 PUSH0 SWAP1 LOG3 POP POP JUMP JUMPDEST PUSH2 0x1B11 PUSH2 0x1887 JUMP JUMPDEST PUSH1 0x7 DUP1 SLOAD PUSH1 0xFF PUSH1 0xA0 SHL NOT AND PUSH1 0x1 PUSH1 0xA0 SHL OR SWAP1 SSTORE PUSH32 0x62E78CEA01BEE320CD4E420270B5EA74000D11B0C9F74754EBDBFC544B05A258 PUSH2 0x1A48 CALLER SWAP1 JUMP JUMPDEST PUSH1 0x1 PUSH1 0x1 PUSH1 0xA0 SHL SUB DUP4 AND PUSH2 0x1B75 JUMPI PUSH1 0x40 MLOAD PUSH4 0xA9FBF51F PUSH1 0xE0 SHL DUP2 MSTORE PUSH0 PUSH1 0x4 DUP3 ADD MSTORE PUSH1 0x24 ADD PUSH2 0x74F JUMP JUMPDEST PUSH1 0x1 PUSH1 0x1 PUSH1 0xA0 SHL SUB DUP3 AND PUSH2 0x1BA7 JUMPI PUSH1 0x40 MLOAD PUSH4 0xB611743 PUSH1 0xE3 SHL DUP2 MSTORE PUSH1 0x1 PUSH1 0x1 PUSH1 0xA0 SHL SUB DUP4 AND PUSH1 0x4 DUP3 ADD MSTORE PUSH1 0x24 ADD PUSH2 0x74F JUMP JUMPDEST PUSH1 0x1 PUSH1 0x1 PUSH1 0xA0 SHL SUB DUP4 DUP2 AND PUSH0 DUP2 DUP2 MSTORE PUSH1 0x5 PUSH1 0x20 SWAP1 DUP2 MSTORE PUSH1 0x40 DUP1 DUP4 KECCAK256 SWAP5 DUP8 AND DUP1 DUP5 MSTORE SWAP5 DUP3 MSTORE SWAP2 DUP3 SWAP1 KECCAK256 DUP1 SLOAD PUSH1 0xFF NOT AND DUP7 ISZERO ISZERO SWAP1 DUP2 OR SWAP1 SWAP2 SSTORE SWAP2 MLOAD SWAP2 DUP3 MSTORE PUSH32 0x17307EAB39AB6107E8899845AD3D59BD9653F200F220920489CA2B5937696C31 SWAP2 ADD JUMPDEST PUSH1 0x40 MLOAD DUP1 SWAP2 SUB SWAP1 LOG3 POP POP POP JUMP JUMPDEST PUSH1 0x1 PUSH1 0x1 PUSH1 0xA0 SHL SUB DUP4 AND EXTCODESIZE ISZERO PUSH2 0x1D35 JUMPI PUSH1 0x40 MLOAD PUSH4 0xA85BD01 PUSH1 0xE1 SHL DUP2 MSTORE PUSH1 0x1 PUSH1 0x1 PUSH1 0xA0 SHL SUB DUP5 AND SWAP1 PUSH4 0x150B7A02 SWAP1 PUSH2 0x1C56 SWAP1 DUP9 SWAP1 DUP9 SWAP1 DUP8 SWAP1 DUP8 SWAP1 PUSH1 0x4 ADD PUSH2 0x2CEA JUMP JUMPDEST PUSH1 0x20 PUSH1 0x40 MLOAD DUP1 DUP4 SUB DUP2 PUSH0 DUP8 GAS CALL SWAP3 POP POP POP DUP1 ISZERO PUSH2 0x1C90 JUMPI POP PUSH1 0x40 DUP1 MLOAD PUSH1 0x1F RETURNDATASIZE SWAP1 DUP2 ADD PUSH1 0x1F NOT AND DUP3 ADD SWAP1 SWAP3 MSTORE PUSH2 0x1C8D SWAP2 DUP2 ADD SWAP1 PUSH2 0x2D26 JUMP JUMPDEST PUSH1 0x1 JUMPDEST PUSH2 0x1CF7 JUMPI RETURNDATASIZE DUP1 DUP1 ISZERO PUSH2 0x1CBD JUMPI PUSH1 0x40 MLOAD SWAP2 POP PUSH1 0x1F NOT PUSH1 0x3F RETURNDATASIZE ADD AND DUP3 ADD PUSH1 0x40 MSTORE RETURNDATASIZE DUP3 MSTORE RETURNDATASIZE PUSH0 PUSH1 0x20 DUP5 ADD RETURNDATACOPY PUSH2 0x1CC2 JUMP JUMPDEST PUSH1 0x60 SWAP2 POP JUMPDEST POP DUP1 MLOAD PUSH0 SUB PUSH2 0x1CEF JUMPI PUSH1 0x40 MLOAD PUSH4 0x32505749 PUSH1 0xE1 SHL DUP2 MSTORE PUSH1 0x1 PUSH1 0x1 PUSH1 0xA0 SHL SUB DUP6 AND PUSH1 0x4 DUP3 ADD MSTORE PUSH1 0x24 ADD PUSH2 0x74F JUMP JUMPDEST DUP1 MLOAD PUSH1 0x20 DUP3 ADD REVERT JUMPDEST PUSH1 0x1 PUSH1 0x1 PUSH1 0xE0 SHL SUB NOT DUP2 AND PUSH4 0xA85BD01 PUSH1 0xE1 SHL EQ PUSH2 0x1D33 JUMPI PUSH1 0x40 MLOAD PUSH4 0x32505749 PUSH1 0xE1 SHL DUP2 MSTORE PUSH1 0x1 PUSH1 0x1 PUSH1 0xA0 SHL SUB DUP6 AND PUSH1 0x4 DUP3 ADD MSTORE PUSH1 0x24 ADD PUSH2 0x74F JUMP JUMPDEST POP JUMPDEST POP POP POP POP POP JUMP JUMPDEST PUSH1 0x60 PUSH2 0x1D47 DUP3 PUSH2 0x18B2 JUMP JUMPDEST POP PUSH0 PUSH2 0x1D5D PUSH1 0x40 DUP1 MLOAD PUSH1 0x20 DUP2 ADD SWAP1 SWAP2 MSTORE PUSH0 DUP2 MSTORE SWAP1 JUMP JUMPDEST SWAP1 POP PUSH0 PUSH2 0x1D69 DUP5 PUSH2 0x214B JUMP JUMPDEST SWAP1 POP DUP2 MLOAD PUSH0 SUB PUSH2 0x1D7A JUMPI SWAP4 SWAP3 POP POP POP JUMP JUMPDEST DUP1 MLOAD ISZERO PUSH2 0x1DAC JUMPI DUP2 DUP2 PUSH1 0x40 MLOAD PUSH1 0x20 ADD PUSH2 0x1D94 SWAP3 SWAP2 SWAP1 PUSH2 0x2D41 JUMP JUMPDEST PUSH1 0x40 MLOAD PUSH1 0x20 DUP2 DUP4 SUB SUB DUP2 MSTORE SWAP1 PUSH1 0x40 MSTORE SWAP3 POP POP POP SWAP2 SWAP1 POP JUMP JUMPDEST PUSH2 0x1DB5 DUP5 PUSH2 0x21EA JUMP JUMPDEST SWAP5 SWAP4 POP POP POP POP JUMP JUMPDEST PUSH2 0x9AA DUP3 DUP3 PUSH1 0x40 MLOAD DUP1 PUSH1 0x20 ADD PUSH1 0x40 MSTORE DUP1 PUSH0 DUP2 MSTORE POP PUSH2 0x225B JUMP JUMPDEST PUSH0 DUP3 DUP2 MSTORE PUSH1 0x6 PUSH1 0x20 MSTORE PUSH1 0x40 SWAP1 KECCAK256 PUSH2 0x1DED DUP3 DUP3 PUSH2 0x2BE6 JUMP JUMPDEST POP PUSH1 0x40 MLOAD DUP3 DUP2 MSTORE PUSH32 0xF8E1A15ABA9398E019F0B49DF1A4FDE98EE17AE345CB5F6B5E2C27F5033E8CE7 SWAP1 PUSH1 0x20 ADD PUSH1 0x40 MLOAD DUP1 SWAP2 SUB SWAP1 LOG1 POP POP JUMP JUMPDEST PUSH1 0x1 PUSH1 0x1 PUSH1 0xA0 SHL SUB DUP3 AND PUSH2 0x1E8A JUMPI PUSH1 0x40 MLOAD PUSH3 0x461BCD PUSH1 0xE5 SHL DUP2 MSTORE PUSH1 0x20 PUSH1 0x4 DUP3 ADD MSTORE PUSH1 0x26 PUSH1 0x24 DUP3 ADD MSTORE PUSH32 0x457069634D696E744E46543A20496E76616C696420726F79616C747920726563 PUSH1 0x44 DUP3 ADD MSTORE PUSH6 0x1A5C1A595B9D PUSH1 0xD2 SHL PUSH1 0x64 DUP3 ADD MSTORE PUSH1 0x84 ADD PUSH2 0x74F JUMP JUMPDEST PUSH2 0x3E8 DUP2 GT ISZERO PUSH2 0x1EAC JUMPI PUSH1 0x40 MLOAD PUSH3 0x461BCD PUSH1 0xE5 SHL DUP2 MSTORE PUSH1 0x4 ADD PUSH2 0x74F SWAP1 PUSH2 0x2CA2 JUMP JUMPDEST PUSH1 0x40 DUP1 MLOAD DUP1 DUP3 ADD DUP3 MSTORE PUSH1 0x1 PUSH1 0x1 PUSH1 0xA0 SHL SUB DUP5 DUP2 AND DUP1 DUP4 MSTORE PUSH1 0x20 DUP1 DUP5 ADD DUP7 DUP2 MSTORE PUSH0 DUP10 DUP2 MSTORE PUSH1 0xC DUP4 MSTORE DUP7 SWAP1 KECCAK256 SWAP5 MLOAD DUP6 SLOAD PUSH1 0x1 PUSH1 0x1 PUSH1 0xA0 SHL SUB NOT AND SWAP5 AND SWAP4 SWAP1 SWAP4 OR DUP5 SSTORE SWAP2 MLOAD PUSH1 0x1 SWAP1 SWAP4 ADD SWAP3 SWAP1 SWAP3 SSTORE SWAP2 MLOAD DUP4 DUP2 MSTORE SWAP1 SWAP2 DUP6 SWAP2 PUSH32 0x49018CA4B3B4F0C8442E69B201303BB7F7919A14033768CE71AD07BA63A348A3 SWAP2 ADD PUSH2 0x1C07 JUMP JUMPDEST PUSH0 PUSH1 0x1 PUSH1 0x1 PUSH1 0xE0 SHL SUB NOT DUP3 AND PUSH4 0x80AC58CD PUSH1 0xE0 SHL EQ DUP1 PUSH2 0x1F58 JUMPI POP PUSH1 0x1 PUSH1 0x1 PUSH1 0xE0 SHL SUB NOT DUP3 AND PUSH4 0x5B5E139F PUSH1 0xE0 SHL EQ JUMPDEST DUP1 PUSH2 0x71E JUMPI POP PUSH4 0x1FFC9A7 PUSH1 0xE0 SHL PUSH1 0x1 PUSH1 0x1 PUSH1 0xE0 SHL SUB NOT DUP4 AND EQ PUSH2 0x71E JUMP JUMPDEST DUP1 DUP1 PUSH2 0x1F8B JUMPI POP PUSH1 0x1 PUSH1 0x1 PUSH1 0xA0 SHL SUB DUP3 AND ISZERO ISZERO JUMPDEST ISZERO PUSH2 0x204C JUMPI PUSH0 PUSH2 0x1F9A DUP5 PUSH2 0x18B2 JUMP JUMPDEST SWAP1 POP PUSH1 0x1 PUSH1 0x1 PUSH1 0xA0 SHL SUB DUP4 AND ISZERO DUP1 ISZERO SWAP1 PUSH2 0x1FC6 JUMPI POP DUP3 PUSH1 0x1 PUSH1 0x1 PUSH1 0xA0 SHL SUB AND DUP2 PUSH1 0x1 PUSH1 0x1 PUSH1 0xA0 SHL SUB AND EQ ISZERO JUMPDEST DUP1 ISZERO PUSH2 0x1FD9 JUMPI POP PUSH2 0x1FD7 DUP2 DUP5 PUSH2 0x17F9 JUMP JUMPDEST ISZERO JUMPDEST ISZERO PUSH2 0x2002 JUMPI PUSH1 0x40 MLOAD PUSH4 0xA9FBF51F PUSH1 0xE0 SHL DUP2 MSTORE PUSH1 0x1 PUSH1 0x1 PUSH1 0xA0 SHL SUB DUP5 AND PUSH1 0x4 DUP3 ADD MSTORE PUSH1 0x24 ADD PUSH2 0x74F JUMP JUMPDEST DUP2 ISZERO PUSH2 0x204A JUMPI DUP4 DUP6 PUSH1 0x1 PUSH1 0x1 PUSH1 0xA0 SHL SUB AND DUP3 PUSH1 0x1 PUSH1 0x1 PUSH1 0xA0 SHL SUB AND PUSH32 0x8C5BE1E5EBEC7D5BD14F71427D1E84F3DD0314C0F7B2291E5B200AC8C7C3B925 PUSH1 0x40 MLOAD PUSH1 0x40 MLOAD DUP1 SWAP2 SUB SWAP1 LOG4 JUMPDEST POP JUMPDEST POP POP PUSH0 SWAP1 DUP2 MSTORE PUSH1 0x4 PUSH1 0x20 MSTORE PUSH1 0x40 SWAP1 KECCAK256 DUP1 SLOAD PUSH1 0x1 PUSH1 0x1 PUSH1 0xA0 SHL SUB NOT AND PUSH1 0x1 PUSH1 0x1 PUSH1 0xA0 SHL SUB SWAP3 SWAP1 SWAP3 AND SWAP2 SWAP1 SWAP2 OR SWAP1 SSTORE JUMP JUMPDEST PUSH2 0x2086 DUP4 DUP4 DUP4 PUSH2 0x2272 JUMP JUMPDEST PUSH2 0xC89 JUMPI PUSH1 0x1 PUSH1 0x1 PUSH1 0xA0 SHL SUB DUP4 AND PUSH2 0x20B4 JUMPI PUSH1 0x40 MLOAD PUSH4 0x7E273289 PUSH1 0xE0 SHL DUP2 MSTORE PUSH1 0x4 DUP2 ADD DUP3 SWAP1 MSTORE PUSH1 0x24 ADD PUSH2 0x74F JUMP JUMPDEST PUSH1 0x40 MLOAD PUSH4 0x177E802F PUSH1 0xE0 SHL DUP2 MSTORE PUSH1 0x1 PUSH1 0x1 PUSH1 0xA0 SHL SUB DUP4 AND PUSH1 0x4 DUP3 ADD MSTORE PUSH1 0x24 DUP2 ADD DUP3 SWAP1 MSTORE PUSH1 0x44 ADD PUSH2 0x74F JUMP JUMPDEST PUSH1 0x7 SLOAD PUSH1 0x1 PUSH1 0xA0 SHL SWAP1 DIV PUSH1 0xFF AND PUSH2 0xB51 JUMPI PUSH1 0x40 MLOAD PUSH4 0x8DFC202B PUSH1 0xE0 SHL DUP2 MSTORE PUSH1 0x4 ADD PUSH1 0x40 MLOAD DUP1 SWAP2 SUB SWAP1 REVERT JUMPDEST PUSH32 0x9B779B17422D0DF92223018B32B4D1FA46E071723D6817E2486D003BECC55F00 SLOAD PUSH1 0x2 SUB PUSH2 0xB51 JUMPI PUSH1 0x40 MLOAD PUSH4 0x3EE5AEB5 PUSH1 0xE0 SHL DUP2 MSTORE PUSH1 0x4 ADD PUSH1 0x40 MLOAD DUP1 SWAP2 SUB SWAP1 REVERT JUMPDEST PUSH0 DUP2 DUP2 MSTORE PUSH1 0x6 PUSH1 0x20 MSTORE PUSH1 0x40 SWAP1 KECCAK256 DUP1 SLOAD PUSH1 0x60 SWAP2 SWAP1 PUSH2 0x2167 SWAP1 PUSH2 0x2AB4 JUMP JUMPDEST DUP1 PUSH1 0x1F ADD PUSH1 0x20 DUP1 SWAP2 DIV MUL PUSH1 0x20 ADD PUSH1 0x40 MLOAD SWAP1 DUP2 ADD PUSH1 0x40 MSTORE DUP1 SWAP3 SWAP2 SWAP1 DUP2 DUP2 MSTORE PUSH1 0x20 ADD DUP3 DUP1 SLOAD PUSH2 0x2193 SWAP1 PUSH2 0x2AB4 JUMP JUMPDEST DUP1 ISZERO PUSH2 0x21DE JUMPI DUP1 PUSH1 0x1F LT PUSH2 0x21B5 JUMPI PUSH2 0x100 DUP1 DUP4 SLOAD DIV MUL DUP4 MSTORE SWAP2 PUSH1 0x20 ADD SWAP2 PUSH2 0x21DE JUMP JUMPDEST DUP3 ADD SWAP2 SWAP1 PUSH0 MSTORE PUSH1 0x20 PUSH0 KECCAK256 SWAP1 JUMPDEST DUP2 SLOAD DUP2 MSTORE SWAP1 PUSH1 0x1 ADD SWAP1 PUSH1 0x20 ADD DUP1 DUP4 GT PUSH2 0x21C1 JUMPI DUP3 SWAP1 SUB PUSH1 0x1F AND DUP3 ADD SWAP2 JUMPDEST POP POP POP POP POP SWAP1 POP SWAP2 SWAP1 POP JUMP JUMPDEST PUSH1 0x60 PUSH2 0x21F5 DUP3 PUSH2 0x18B2 JUMP JUMPDEST POP PUSH0 PUSH2 0x220B PUSH1 0x40 DUP1 MLOAD PUSH1 0x20 DUP2 ADD SWAP1 SWAP2 MSTORE PUSH0 DUP2 MSTORE SWAP1 JUMP JUMPDEST SWAP1 POP PUSH0 DUP2 MLOAD GT PUSH2 0x2229 JUMPI PUSH1 0x40 MLOAD DUP1 PUSH1 0x20 ADD PUSH1 0x40 MSTORE DUP1 PUSH0 DUP2 MSTORE POP PUSH2 0x2254 JUMP JUMPDEST DUP1 PUSH2 0x2233 DUP5 PUSH2 0x22D3 JUMP JUMPDEST PUSH1 0x40 MLOAD PUSH1 0x20 ADD PUSH2 0x2244 SWAP3 SWAP2 SWAP1 PUSH2 0x2D41 JUMP JUMPDEST PUSH1 0x40 MLOAD PUSH1 0x20 DUP2 DUP4 SUB SUB DUP2 MSTORE SWAP1 PUSH1 0x40 MSTORE JUMPDEST SWAP4 SWAP3 POP POP POP JUMP JUMPDEST PUSH2 0x2265 DUP4 DUP4 PUSH2 0x2363 JUMP JUMPDEST PUSH2 0xC89 CALLER PUSH0 DUP6 DUP6 DUP6 PUSH2 0x1C14 JUMP JUMPDEST PUSH0 PUSH1 0x1 PUSH1 0x1 PUSH1 0xA0 SHL SUB DUP4 AND ISZERO DUP1 ISZERO SWAP1 PUSH2 0x1DB5 JUMPI POP DUP3 PUSH1 0x1 PUSH1 0x1 PUSH1 0xA0 SHL SUB AND DUP5 PUSH1 0x1 PUSH1 0x1 PUSH1 0xA0 SHL SUB AND EQ DUP1 PUSH2 0x22AB JUMPI POP PUSH2 0x22AB DUP5 DUP5 PUSH2 0x17F9 JUMP JUMPDEST DUP1 PUSH2 0x1DB5 JUMPI POP POP PUSH0 SWAP1 DUP2 MSTORE PUSH1 0x4 PUSH1 0x20 MSTORE PUSH1 0x40 SWAP1 KECCAK256 SLOAD PUSH1 0x1 PUSH1 0x1 PUSH1 0xA0 SHL SUB SWAP1 DUP2 AND SWAP2 AND EQ SWAP2 SWAP1 POP JUMP JUMPDEST PUSH1 0x60 PUSH0 PUSH2 0x22DF DUP4 PUSH2 0x23C4 JUMP JUMPDEST PUSH1 0x1 ADD SWAP1 POP PUSH0 DUP2 PUSH8 0xFFFFFFFFFFFFFFFF DUP2 GT ISZERO PUSH2 0x22FE JUMPI PUSH2 0x22FE PUSH2 0x24CB JUMP JUMPDEST PUSH1 0x40 MLOAD SWAP1 DUP1 DUP3 MSTORE DUP1 PUSH1 0x1F ADD PUSH1 0x1F NOT AND PUSH1 0x20 ADD DUP3 ADD PUSH1 0x40 MSTORE DUP1 ISZERO PUSH2 0x2328 JUMPI PUSH1 0x20 DUP3 ADD DUP2 DUP1 CALLDATASIZE DUP4 CALLDATACOPY ADD SWAP1 POP JUMPDEST POP SWAP1 POP DUP2 DUP2 ADD PUSH1 0x20 ADD JUMPDEST PUSH0 NOT ADD PUSH16 0x181899199A1A9B1B9C1CB0B131B232B3 PUSH1 0x81 SHL PUSH1 0xA DUP7 MOD BYTE DUP2 MSTORE8 PUSH1 0xA DUP6 DIV SWAP5 POP DUP5 PUSH2 0x2332 JUMPI POP SWAP4 SWAP3 POP POP POP JUMP JUMPDEST PUSH1 0x1 PUSH1 0x1 PUSH1 0xA0 SHL SUB DUP3 AND PUSH2 0x238C JUMPI PUSH1 0x40 MLOAD PUSH4 0x32505749 PUSH1 0xE1 SHL DUP2 MSTORE PUSH0 PUSH1 0x4 DUP3 ADD MSTORE PUSH1 0x24 ADD PUSH2 0x74F JUMP JUMPDEST PUSH0 PUSH2 0x2398 DUP4 DUP4 PUSH0 PUSH2 0x18F6 JUMP JUMPDEST SWAP1 POP PUSH1 0x1 PUSH1 0x1 PUSH1 0xA0 SHL SUB DUP2 AND ISZERO PUSH2 0xC89 JUMPI PUSH1 0x40 MLOAD PUSH4 0x39E35637 PUSH1 0xE1 SHL DUP2 MSTORE PUSH0 PUSH1 0x4 DUP3 ADD MSTORE PUSH1 0x24 ADD PUSH2 0x74F JUMP JUMPDEST PUSH0 DUP1 PUSH19 0x184F03E93FF9F4DAA797ED6E38ED64BF6A1F01 PUSH1 0x40 SHL DUP4 LT PUSH2 0x2402 JUMPI PUSH19 0x184F03E93FF9F4DAA797ED6E38ED64BF6A1F01 PUSH1 0x40 SHL DUP4 DIV SWAP3 POP PUSH1 0x40 ADD JUMPDEST PUSH14 0x4EE2D6D415B85ACEF8100000000 DUP4 LT PUSH2 0x242E JUMPI PUSH14 0x4EE2D6D415B85ACEF8100000000 DUP4 DIV SWAP3 POP PUSH1 0x20 ADD JUMPDEST PUSH7 0x2386F26FC10000 DUP4 LT PUSH2 0x244C JUMPI PUSH7 0x2386F26FC10000 DUP4 DIV SWAP3 POP PUSH1 0x10 ADD JUMPDEST PUSH4 0x5F5E100 DUP4 LT PUSH2 0x2464 JUMPI PUSH4 0x5F5E100 DUP4 DIV SWAP3 POP PUSH1 0x8 ADD JUMPDEST PUSH2 0x2710 DUP4 LT PUSH2 0x2478 JUMPI PUSH2 0x2710 DUP4 DIV SWAP3 POP PUSH1 0x4 ADD JUMPDEST PUSH1 0x64 DUP4 LT PUSH2 0x248A JUMPI PUSH1 0x64 DUP4 DIV SWAP3 POP PUSH1 0x2 ADD JUMPDEST PUSH1 0xA DUP4 LT PUSH2 0x71E JUMPI PUSH1 0x1 ADD SWAP3 SWAP2 POP POP JUMP JUMPDEST PUSH1 0x1 PUSH1 0x1 PUSH1 0xE0 SHL SUB NOT DUP2 AND DUP2 EQ PUSH2 0x1860 JUMPI PUSH0 DUP1 REVERT JUMPDEST PUSH0 PUSH1 0x20 DUP3 DUP5 SUB SLT ISZERO PUSH2 0x24C0 JUMPI PUSH0 DUP1 REVERT JUMPDEST DUP2 CALLDATALOAD PUSH2 0x2254 DUP2 PUSH2 0x249B JUMP JUMPDEST PUSH4 0x4E487B71 PUSH1 0xE0 SHL PUSH0 MSTORE PUSH1 0x41 PUSH1 0x4 MSTORE PUSH1 0x24 PUSH0 REVERT JUMPDEST PUSH1 0x40 MLOAD PUSH1 0x1F DUP3 ADD PUSH1 0x1F NOT AND DUP2 ADD PUSH8 0xFFFFFFFFFFFFFFFF DUP2 GT DUP3 DUP3 LT OR ISZERO PUSH2 0x2508 JUMPI PUSH2 0x2508 PUSH2 0x24CB JUMP JUMPDEST PUSH1 0x40 MSTORE SWAP2 SWAP1 POP JUMP JUMPDEST PUSH0 PUSH8 0xFFFFFFFFFFFFFFFF DUP3 GT ISZERO PUSH2 0x2529 JUMPI PUSH2 0x2529 PUSH2 0x24CB JUMP JUMPDEST POP PUSH1 0x5 SHL PUSH1 0x20 ADD SWAP1 JUMP JUMPDEST DUP1 CALLDATALOAD PUSH1 0x1 PUSH1 0x1 PUSH1 0xA0 SHL SUB DUP2 AND DUP2 EQ PUSH2 0x2549 JUMPI PUSH0 DUP1 REVERT JUMPDEST SWAP2 SWAP1 POP JUMP JUMPDEST PUSH0 DUP3 PUSH1 0x1F DUP4 ADD SLT PUSH2 0x255D JUMPI PUSH0 DUP1 REVERT JUMPDEST DUP2 CALLDATALOAD PUSH1 0x20 PUSH2 0x2572 PUSH2 0x256D DUP4 PUSH2 0x2510 JUMP JUMPDEST PUSH2 0x24DF JUMP JUMPDEST DUP1 DUP4 DUP3 MSTORE PUSH1 0x20 DUP3 ADD SWAP2 POP PUSH1 0x20 DUP5 PUSH1 0x5 SHL DUP8 ADD ADD SWAP4 POP DUP7 DUP5 GT ISZERO PUSH2 0x2593 JUMPI PUSH0 DUP1 REVERT JUMPDEST PUSH1 0x20 DUP7 ADD JUMPDEST DUP5 DUP2 LT ISZERO PUSH2 0x25B6 JUMPI PUSH2 0x25A9 DUP2 PUSH2 0x2533 JUMP JUMPDEST DUP4 MSTORE SWAP2 DUP4 ADD SWAP2 DUP4 ADD PUSH2 0x2598 JUMP JUMPDEST POP SWAP7 SWAP6 POP POP POP POP POP POP JUMP JUMPDEST PUSH0 PUSH8 0xFFFFFFFFFFFFFFFF DUP4 GT ISZERO PUSH2 0x25DA JUMPI PUSH2 0x25DA PUSH2 0x24CB JUMP JUMPDEST PUSH2 0x25ED PUSH1 0x1F DUP5 ADD PUSH1 0x1F NOT AND PUSH1 0x20 ADD PUSH2 0x24DF JUMP JUMPDEST SWAP1 POP DUP3 DUP2 MSTORE DUP4 DUP4 DUP4 ADD GT ISZERO PUSH2 0x2600 JUMPI PUSH0 DUP1 REVERT JUMPDEST DUP3 DUP3 PUSH1 0x20 DUP4 ADD CALLDATACOPY PUSH0 PUSH1 0x20 DUP5 DUP4 ADD ADD MSTORE SWAP4 SWAP3 POP POP POP JUMP JUMPDEST PUSH0 DUP3 PUSH1 0x1F DUP4 ADD SLT PUSH2 0x2625 JUMPI PUSH0 DUP1 REVERT JUMPDEST PUSH2 0x2254 DUP4 DUP4 CALLDATALOAD PUSH1 0x20 DUP6 ADD PUSH2 0x25C1 JUMP JUMPDEST PUSH0 DUP3 PUSH1 0x1F DUP4 ADD SLT PUSH2 0x2643 JUMPI PUSH0 DUP1 REVERT JUMPDEST DUP2 CALLDATALOAD PUSH1 0x20 PUSH2 0x2653 PUSH2 0x256D DUP4 PUSH2 0x2510 JUMP JUMPDEST DUP1 DUP4 DUP3 MSTORE PUSH1 0x20 DUP3 ADD SWAP2 POP PUSH1 0x20 DUP5 PUSH1 0x5 SHL DUP8 ADD ADD SWAP4 POP DUP7 DUP5 GT ISZERO PUSH2 0x2674 JUMPI PUSH0 DUP1 REVERT JUMPDEST PUSH1 0x20 DUP7 ADD JUMPDEST DUP5 DUP2 LT ISZERO PUSH2 0x25B6 JUMPI DUP1 CALLDATALOAD DUP4 MSTORE SWAP2 DUP4 ADD SWAP2 DUP4 ADD PUSH2 0x2679 JUMP JUMPDEST PUSH0 DUP1 PUSH0 DUP1 PUSH1 0x80 DUP6 DUP8 SUB SLT ISZERO PUSH2 0x26A3 JUMPI PUSH0 DUP1 REVERT JUMPDEST DUP5 CALLDATALOAD PUSH8 0xFFFFFFFFFFFFFFFF DUP1 DUP3 GT ISZERO PUSH2 0x26BA JUMPI PUSH0 DUP1 REVERT JUMPDEST PUSH2 0x26C6 DUP9 DUP4 DUP10 ADD PUSH2 0x254E JUMP JUMPDEST SWAP6 POP PUSH1 0x20 SWAP2 POP DUP2 DUP8 ADD CALLDATALOAD DUP2 DUP2 GT ISZERO PUSH2 0x26DC JUMPI PUSH0 DUP1 REVERT JUMPDEST DUP8 ADD PUSH1 0x1F DUP2 ADD DUP10 SGT PUSH2 0x26EC JUMPI PUSH0 DUP1 REVERT JUMPDEST DUP1 CALLDATALOAD PUSH2 0x26FA PUSH2 0x256D DUP3 PUSH2 0x2510 JUMP JUMPDEST DUP2 DUP2 MSTORE PUSH1 0x5 SWAP2 SWAP1 SWAP2 SHL DUP3 ADD DUP5 ADD SWAP1 DUP5 DUP2 ADD SWAP1 DUP12 DUP4 GT ISZERO PUSH2 0x2718 JUMPI PUSH0 DUP1 REVERT JUMPDEST DUP6 DUP5 ADD JUMPDEST DUP4 DUP2 LT ISZERO PUSH2 0x274E JUMPI DUP1 CALLDATALOAD DUP7 DUP2 GT ISZERO PUSH2 0x2732 JUMPI PUSH0 DUP1 REVERT JUMPDEST PUSH2 0x2740 DUP15 DUP10 DUP4 DUP10 ADD ADD PUSH2 0x2616 JUMP JUMPDEST DUP5 MSTORE POP SWAP2 DUP7 ADD SWAP2 DUP7 ADD PUSH2 0x271C JUMP JUMPDEST POP SWAP8 POP POP POP POP PUSH1 0x40 DUP8 ADD CALLDATALOAD SWAP2 POP DUP1 DUP3 GT ISZERO PUSH2 0x2767 JUMPI PUSH0 DUP1 REVERT JUMPDEST PUSH2 0x2773 DUP9 DUP4 DUP10 ADD PUSH2 0x254E JUMP JUMPDEST SWAP4 POP PUSH1 0x60 DUP8 ADD CALLDATALOAD SWAP2 POP DUP1 DUP3 GT ISZERO PUSH2 0x2788 JUMPI PUSH0 DUP1 REVERT JUMPDEST POP PUSH2 0x2795 DUP8 DUP3 DUP9 ADD PUSH2 0x2634 JUMP JUMPDEST SWAP2 POP POP SWAP3 SWAP6 SWAP2 SWAP5 POP SWAP3 POP JUMP JUMPDEST PUSH1 0x20 DUP1 DUP3 MSTORE DUP3 MLOAD DUP3 DUP3 ADD DUP2 SWAP1 MSTORE PUSH0 SWAP2 SWAP1 DUP5 DUP3 ADD SWAP1 PUSH1 0x40 DUP6 ADD SWAP1 DUP5 JUMPDEST DUP2 DUP2 LT ISZERO PUSH2 0x27D8 JUMPI DUP4 MLOAD DUP4 MSTORE SWAP3 DUP5 ADD SWAP3 SWAP2 DUP5 ADD SWAP2 PUSH1 0x1 ADD PUSH2 0x27BC JUMP JUMPDEST POP SWAP1 SWAP7 SWAP6 POP POP POP POP POP POP JUMP JUMPDEST PUSH0 JUMPDEST DUP4 DUP2 LT ISZERO PUSH2 0x27FE JUMPI DUP2 DUP2 ADD MLOAD DUP4 DUP3 ADD MSTORE PUSH1 0x20 ADD PUSH2 0x27E6 JUMP JUMPDEST POP POP PUSH0 SWAP2 ADD MSTORE JUMP JUMPDEST PUSH0 DUP2 MLOAD DUP1 DUP5 MSTORE PUSH2 0x281D DUP2 PUSH1 0x20 DUP7 ADD PUSH1 0x20 DUP7 ADD PUSH2 0x27E4 JUMP JUMPDEST PUSH1 0x1F ADD PUSH1 0x1F NOT AND SWAP3 SWAP1 SWAP3 ADD PUSH1 0x20 ADD SWAP3 SWAP2 POP POP JUMP JUMPDEST PUSH1 0x20 DUP2 MSTORE PUSH0 PUSH2 0x2254 PUSH1 0x20 DUP4 ADD DUP5 PUSH2 0x2806 JUMP JUMPDEST PUSH0 PUSH1 0x20 DUP3 DUP5 SUB SLT ISZERO PUSH2 0x2853 JUMPI PUSH0 DUP1 REVERT JUMPDEST POP CALLDATALOAD SWAP2 SWAP1 POP JUMP JUMPDEST PUSH0 DUP1 PUSH1 0x40 DUP4 DUP6 SUB SLT ISZERO PUSH2 0x286B JUMPI PUSH0 DUP1 REVERT JUMPDEST PUSH2 0x2874 DUP4 PUSH2 0x2533 JUMP JUMPDEST SWAP5 PUSH1 0x20 SWAP4 SWAP1 SWAP4 ADD CALLDATALOAD SWAP4 POP POP POP JUMP JUMPDEST PUSH0 DUP1 PUSH0 PUSH1 0x60 DUP5 DUP7 SUB SLT ISZERO PUSH2 0x2894 JUMPI PUSH0 DUP1 REVERT JUMPDEST PUSH2 0x289D DUP5 PUSH2 0x2533 JUMP JUMPDEST SWAP3 POP PUSH2 0x28AB PUSH1 0x20 DUP6 ADD PUSH2 0x2533 JUMP JUMPDEST SWAP2 POP PUSH1 0x40 DUP5 ADD CALLDATALOAD SWAP1 POP SWAP3 POP SWAP3 POP SWAP3 JUMP JUMPDEST PUSH0 DUP1 PUSH1 0x40 DUP4 DUP6 SUB SLT ISZERO PUSH2 0x28CC JUMPI PUSH0 DUP1 REVERT JUMPDEST POP POP DUP1 CALLDATALOAD SWAP3 PUSH1 0x20 SWAP1 SWAP2 ADD CALLDATALOAD SWAP2 POP JUMP JUMPDEST PUSH0 PUSH1 0x20 DUP3 DUP5 SUB SLT ISZERO PUSH2 0x28EB JUMPI PUSH0 DUP1 REVERT JUMPDEST PUSH2 0x2254 DUP3 PUSH2 0x2533 JUMP JUMPDEST PUSH0 PUSH1 0x20 DUP3 DUP5 SUB SLT ISZERO PUSH2 0x2904 JUMPI PUSH0 DUP1 REVERT JUMPDEST DUP2 CALLDATALOAD PUSH8 0xFFFFFFFFFFFFFFFF DUP2 GT ISZERO PUSH2 0x291A JUMPI PUSH0 DUP1 REVERT JUMPDEST PUSH2 0x1DB5 DUP5 DUP3 DUP6 ADD PUSH2 0x2616 JUMP JUMPDEST PUSH0 DUP1 PUSH1 0x40 DUP4 DUP6 SUB SLT ISZERO PUSH2 0x2937 JUMPI PUSH0 DUP1 REVERT JUMPDEST PUSH2 0x2940 DUP4 PUSH2 0x2533 JUMP JUMPDEST SWAP2 POP PUSH1 0x20 DUP4 ADD CALLDATALOAD DUP1 ISZERO ISZERO DUP2 EQ PUSH2 0x2954 JUMPI PUSH0 DUP1 REVERT JUMPDEST DUP1 SWAP2 POP POP SWAP3 POP SWAP3 SWAP1 POP JUMP JUMPDEST PUSH0 DUP1 PUSH0 DUP1 PUSH1 0x80 DUP6 DUP8 SUB SLT ISZERO PUSH2 0x2972 JUMPI PUSH0 DUP1 REVERT JUMPDEST PUSH2 0x297B DUP6 PUSH2 0x2533 JUMP JUMPDEST SWAP4 POP PUSH2 0x2989 PUSH1 0x20 DUP7 ADD PUSH2 0x2533 JUMP JUMPDEST SWAP3 POP PUSH1 0x40 DUP6 ADD CALLDATALOAD SWAP2 POP PUSH1 0x60 DUP6 ADD CALLDATALOAD PUSH8 0xFFFFFFFFFFFFFFFF DUP2 GT ISZERO PUSH2 0x29AB JUMPI PUSH0 DUP1 REVERT JUMPDEST DUP6 ADD PUSH1 0x1F DUP2 ADD DUP8 SGT PUSH2 0x29BB JUMPI PUSH0 DUP1 REVERT JUMPDEST PUSH2 0x2795 DUP8 DUP3 CALLDATALOAD PUSH1 0x20 DUP5 ADD PUSH2 0x25C1 JUMP JUMPDEST PUSH0 DUP1 PUSH0 DUP1 PUSH1 0x80 DUP6 DUP8 SUB SLT ISZERO PUSH2 0x29DD JUMPI PUSH0 DUP1 REVERT JUMPDEST PUSH2 0x29E6 DUP6 PUSH2 0x2533 JUMP JUMPDEST SWAP4 POP PUSH1 0x20 DUP6 ADD CALLDATALOAD PUSH8 0xFFFFFFFFFFFFFFFF DUP2 GT ISZERO PUSH2 0x2A01 JUMPI PUSH0 DUP1 REVERT JUMPDEST PUSH2 0x2A0D DUP8 DUP3 DUP9 ADD PUSH2 0x2616 JUMP JUMPDEST SWAP4 POP POP PUSH2 0x2A1C PUSH1 0x40 DUP7 ADD PUSH2 0x2533 JUMP JUMPDEST SWAP4 SWAP7 SWAP3 SWAP6 POP SWAP3 SWAP4 PUSH1 0x60 ADD CALLDATALOAD SWAP3 POP POP JUMP JUMPDEST PUSH0 DUP1 PUSH1 0x40 DUP4 DUP6 SUB SLT ISZERO PUSH2 0x2A3D JUMPI PUSH0 DUP1 REVERT JUMPDEST PUSH2 0x2A46 DUP4 PUSH2 0x2533 JUMP JUMPDEST SWAP2 POP PUSH2 0x2A54 PUSH1 0x20 DUP5 ADD PUSH2 0x2533 JUMP JUMPDEST SWAP1 POP SWAP3 POP SWAP3 SWAP1 POP JUMP JUMPDEST PUSH1 0x20 DUP1 DUP3 MSTORE PUSH1 0x23 SWAP1 DUP3 ADD MSTORE PUSH32 0x457069634D696E744E46543A20417272617973206C656E677468206D69736D61 PUSH1 0x40 DUP3 ADD MSTORE PUSH3 0xE8C6D PUSH1 0xEB SHL PUSH1 0x60 DUP3 ADD MSTORE PUSH1 0x80 ADD SWAP1 JUMP JUMPDEST PUSH4 0x4E487B71 PUSH1 0xE0 SHL PUSH0 MSTORE PUSH1 0x32 PUSH1 0x4 MSTORE PUSH1 0x24 PUSH0 REVERT JUMPDEST PUSH1 0x1 DUP2 DUP2 SHR SWAP1 DUP3 AND DUP1 PUSH2 0x2AC8 JUMPI PUSH1 0x7F DUP3 AND SWAP2 POP JUMPDEST PUSH1 0x20 DUP3 LT DUP2 SUB PUSH2 0x2AE6 JUMPI PUSH4 0x4E487B71 PUSH1 0xE0 SHL PUSH0 MSTORE PUSH1 0x22 PUSH1 0x4 MSTORE PUSH1 0x24 PUSH0 REVERT JUMPDEST POP SWAP2 SWAP1 POP JUMP JUMPDEST PUSH4 0x4E487B71 PUSH1 0xE0 SHL PUSH0 MSTORE PUSH1 0x11 PUSH1 0x4 MSTORE PUSH1 0x24 PUSH0 REVERT JUMPDEST DUP1 DUP3 MUL DUP2 ISZERO DUP3 DUP3 DIV DUP5 EQ OR PUSH2 0x71E JUMPI PUSH2 0x71E PUSH2 0x2AEC JUMP JUMPDEST PUSH0 DUP3 PUSH2 0x2B31 JUMPI PUSH4 0x4E487B71 PUSH1 0xE0 SHL PUSH0 MSTORE PUSH1 0x12 PUSH1 0x4 MSTORE PUSH1 0x24 PUSH0 REVERT JUMPDEST POP DIV SWAP1 JUMP JUMPDEST DUP2 DUP2 SUB DUP2 DUP2 GT ISZERO PUSH2 0x71E JUMPI PUSH2 0x71E PUSH2 0x2AEC JUMP JUMPDEST PUSH0 PUSH1 0x1 DUP3 ADD PUSH2 0x2B5A JUMPI PUSH2 0x2B5A PUSH2 0x2AEC JUMP JUMPDEST POP PUSH1 0x1 ADD SWAP1 JUMP JUMPDEST PUSH1 0x20 DUP1 DUP3 MSTORE PUSH1 0x21 SWAP1 DUP3 ADD MSTORE PUSH32 0x457069634D696E744E46543A20546F6B656E20646F6573206E6F742065786973 PUSH1 0x40 DUP3 ADD MSTORE PUSH1 0x1D PUSH1 0xFA SHL PUSH1 0x60 DUP3 ADD MSTORE PUSH1 0x80 ADD SWAP1 JUMP JUMPDEST PUSH1 0x1F DUP3 GT ISZERO PUSH2 0xC89 JUMPI DUP1 PUSH0 MSTORE PUSH1 0x20 PUSH0 KECCAK256 PUSH1 0x1F DUP5 ADD PUSH1 0x5 SHR DUP2 ADD PUSH1 0x20 DUP6 LT ISZERO PUSH2 0x2BC7 JUMPI POP DUP1 JUMPDEST PUSH1 0x1F DUP5 ADD PUSH1 0x5 SHR DUP3 ADD SWAP2 POP JUMPDEST DUP2 DUP2 LT ISZERO PUSH2 0x1D35 JUMPI PUSH0 DUP2 SSTORE PUSH1 0x1 ADD PUSH2 0x2BD3 JUMP JUMPDEST DUP2 MLOAD PUSH8 0xFFFFFFFFFFFFFFFF DUP2 GT ISZERO PUSH2 0x2C00 JUMPI PUSH2 0x2C00 PUSH2 0x24CB JUMP JUMPDEST PUSH2 0x2C14 DUP2 PUSH2 0x2C0E DUP5 SLOAD PUSH2 0x2AB4 JUMP JUMPDEST DUP5 PUSH2 0x2BA2 JUMP JUMPDEST PUSH1 0x20 DUP1 PUSH1 0x1F DUP4 GT PUSH1 0x1 DUP2 EQ PUSH2 0x2C47 JUMPI PUSH0 DUP5 ISZERO PUSH2 0x2C30 JUMPI POP DUP6 DUP4 ADD MLOAD JUMPDEST PUSH0 NOT PUSH1 0x3 DUP7 SWAP1 SHL SHR NOT AND PUSH1 0x1 DUP6 SWAP1 SHL OR DUP6 SSTORE PUSH2 0x1D33 JUMP JUMPDEST PUSH0 DUP6 DUP2 MSTORE PUSH1 0x20 DUP2 KECCAK256 PUSH1 0x1F NOT DUP7 AND SWAP2 JUMPDEST DUP3 DUP2 LT ISZERO PUSH2 0x2C75 JUMPI DUP9 DUP7 ADD MLOAD DUP3 SSTORE SWAP5 DUP5 ADD SWAP5 PUSH1 0x1 SWAP1 SWAP2 ADD SWAP1 DUP5 ADD PUSH2 0x2C56 JUMP JUMPDEST POP DUP6 DUP3 LT ISZERO PUSH2 0x2C92 JUMPI DUP8 DUP6 ADD MLOAD PUSH0 NOT PUSH1 0x3 DUP9 SWAP1 SHL PUSH1 0xF8 AND SHR NOT AND DUP2 SSTORE JUMPDEST POP POP POP POP POP PUSH1 0x1 SWAP1 DUP2 SHL ADD SWAP1 SSTORE POP JUMP JUMPDEST PUSH1 0x20 DUP1 DUP3 MSTORE PUSH1 0x28 SWAP1 DUP3 ADD MSTORE PUSH32 0x457069634D696E744E46543A20526F79616C74792070657263656E7461676520 PUSH1 0x40 DUP3 ADD MSTORE PUSH8 0xE8DEDE40D0D2CED PUSH1 0xC3 SHL PUSH1 0x60 DUP3 ADD MSTORE PUSH1 0x80 ADD SWAP1 JUMP JUMPDEST PUSH1 0x1 PUSH1 0x1 PUSH1 0xA0 SHL SUB DUP6 DUP2 AND DUP3 MSTORE DUP5 AND PUSH1 0x20 DUP3 ADD MSTORE PUSH1 0x40 DUP2 ADD DUP4 SWAP1 MSTORE PUSH1 0x80 PUSH1 0x60 DUP3 ADD DUP2 SWAP1 MSTORE PUSH0 SWAP1 PUSH2 0x2D1C SWAP1 DUP4 ADD DUP5 PUSH2 0x2806 JUMP JUMPDEST SWAP7 SWAP6 POP POP POP POP POP POP JUMP JUMPDEST PUSH0 PUSH1 0x20 DUP3 DUP5 SUB SLT ISZERO PUSH2 0x2D36 JUMPI PUSH0 DUP1 REVERT JUMPDEST DUP2 MLOAD PUSH2 0x2254 DUP2 PUSH2 0x249B JUMP JUMPDEST PUSH0 DUP4 MLOAD PUSH2 0x2D52 DUP2 DUP5 PUSH1 0x20 DUP9 ADD PUSH2 0x27E4 JUMP JUMPDEST DUP4 MLOAD SWAP1 DUP4 ADD SWAP1 PUSH2 0x2D66 DUP2 DUP4 PUSH1 0x20 DUP9 ADD PUSH2 0x27E4 JUMP JUMPDEST ADD SWAP5 SWAP4 POP POP POP POP JUMP INVALID LOG2 PUSH5 0x6970667358 0x22 SLT KECCAK256 MULMOD 0xDF SELFDESTRUCT PUSH4 0x6725590E 0xD7 0xD1 ISZERO AND MSTORE8 0x4D STATICCALL CODECOPY PUSH0 LOG4 LOG4 0x4B 0xD1 ORIGIN MULMOD MSTORE MSIZE MOD PUSH3 0x351FAD 0xC9 JUMPDEST PUSH5 0x736F6C6343 STOP ADDMOD XOR STOP CALLER "},"methodIdentifiers":{"approve(address,uint256)":"095ea7b3","balanceOf(address)":"70a08231","batchMintNFT(address[],string[],address[],uint256[])":"034f4b25","burn(uint256)":"42966c68","buyNFT(uint256)":"51ed8288","contractURI()":"e8a3d485","getApproved(uint256)":"081812fc","getCurrentTokenId()":"56189236","getMarketItem(uint256)":"c7be7a49","getTokensByOwner(address)":"40398d67","getTokensForSale()":"65e4e1c0","isApprovedForAll(address,address)":"e985e9c5","isTokenForSale(uint256)":"4fed1c94","listNFT(uint256,uint256)":"94383f14","mintNFT(address,string,address,uint256)":"e3e3da89","name()":"06fdde03","owner()":"8da5cb5b","ownerOf(uint256)":"6352211e","pause()":"8456cb59","paused()":"5c975abb","renounceOwnership()":"715018a6","royaltyInfo(uint256,uint256)":"2a55205a","safeTransferFrom(address,address,uint256)":"42842e0e","safeTransferFrom(address,address,uint256,bytes)":"b88d4fde","setApprovalForAll(address,bool)":"a22cb465","setContractURI(string)":"938e3d7b","supportsInterface(bytes4)":"01ffc9a7","symbol()":"95d89b41","tokenURI(uint256)":"c87b56dd","transferFrom(address,address,uint256)":"23b872dd","transferOwnership(address)":"f2fde38b","unlistNFT(uint256)":"961f0944","unpause()":"3f4ba83a","withdraw()":"3ccfd60b"}}}}}